{
  "_format": "hh-sol-artifact-1",
  "contractName": "Cafe",
  "sourceName": "contracts/Cafe.sol",
  "abi": [
    {
      "inputs": [
        {
          "internalType": "string",
          "name": "_name",
          "type": "string"
        },
        {
          "internalType": "string",
          "name": "_details",
          "type": "string"
        },
        {
          "internalType": "uint256",
          "name": "_tokenRequired",
          "type": "uint256"
        },
        {
          "internalType": "uint256",
          "name": "_level",
          "type": "uint256"
        }
      ],
      "name": "addNFT",
      "outputs": [],
      "stateMutability": "nonpayable",
      "type": "function"
    },
    {
      "inputs": [
        {
          "internalType": "string",
          "name": "_name",
          "type": "string"
        },
        {
          "internalType": "string",
          "name": "_productDescription",
          "type": "string"
        },
        {
          "internalType": "string",
          "name": "_productImage",
          "type": "string"
        },
        {
          "internalType": "uint256",
          "name": "_price",
          "type": "uint256"
        }
      ],
      "name": "addProduct",
      "outputs": [],
      "stateMutability": "nonpayable",
      "type": "function"
    },
    {
      "inputs": [
        {
          "internalType": "string",
          "name": "_name",
          "type": "string"
        },
        {
          "internalType": "string",
          "name": "_email",
          "type": "string"
        },
        {
          "internalType": "string",
          "name": "_profileImage",
          "type": "string"
        }
      ],
      "name": "addUserProfile",
      "outputs": [],
      "stateMutability": "nonpayable",
      "type": "function"
    },
    {
      "inputs": [
        {
          "internalType": "uint256",
          "name": "",
          "type": "uint256"
        }
      ],
      "name": "allNFTs",
      "outputs": [
        {
          "internalType": "uint256",
          "name": "nftId",
          "type": "uint256"
        },
        {
          "internalType": "string",
          "name": "name",
          "type": "string"
        },
        {
          "internalType": "string",
          "name": "description",
          "type": "string"
        },
        {
          "internalType": "uint256",
          "name": "tokenRequired",
          "type": "uint256"
        },
        {
          "internalType": "uint256",
          "name": "level",
          "type": "uint256"
        }
      ],
      "stateMutability": "view",
      "type": "function"
    },
    {
      "inputs": [
        {
          "internalType": "uint256",
          "name": "",
          "type": "uint256"
        }
      ],
      "name": "allProduct",
      "outputs": [
        {
          "internalType": "uint256",
          "name": "productId",
          "type": "uint256"
        },
        {
          "internalType": "string",
          "name": "name",
          "type": "string"
        },
        {
          "internalType": "string",
          "name": "productImage",
          "type": "string"
        },
        {
          "internalType": "uint256",
          "name": "price",
          "type": "uint256"
        },
        {
          "internalType": "string",
          "name": "productDescription",
          "type": "string"
        },
        {
          "internalType": "uint256",
          "name": "count",
          "type": "uint256"
        }
      ],
      "stateMutability": "view",
      "type": "function"
    },
    {
      "inputs": [
        {
          "internalType": "address",
          "name": "",
          "type": "address"
        }
      ],
      "name": "allUsers",
      "outputs": [
        {
          "internalType": "uint256",
          "name": "userId",
          "type": "uint256"
        },
        {
          "internalType": "string",
          "name": "name",
          "type": "string"
        },
        {
          "internalType": "string",
          "name": "email",
          "type": "string"
        },
        {
          "internalType": "address",
          "name": "walletAddress",
          "type": "address"
        },
        {
          "internalType": "uint256",
          "name": "pointsBalance",
          "type": "uint256"
        },
        {
          "internalType": "string",
          "name": "profileImage",
          "type": "string"
        }
      ],
      "stateMutability": "view",
      "type": "function"
    },
    {
      "inputs": [
        {
          "internalType": "uint256",
          "name": "_nftId",
          "type": "uint256"
        }
      ],
      "name": "buyNFT",
      "outputs": [],
      "stateMutability": "nonpayable",
      "type": "function"
    },
    {
      "inputs": [
        {
          "internalType": "address",
          "name": "",
          "type": "address"
        }
      ],
      "name": "isProfileSet",
      "outputs": [
        {
          "internalType": "bool",
          "name": "",
          "type": "bool"
        }
      ],
      "stateMutability": "view",
      "type": "function"
    },
    {
      "inputs": [],
      "name": "nftCounter",
      "outputs": [
        {
          "internalType": "uint256",
          "name": "",
          "type": "uint256"
        }
      ],
      "stateMutability": "view",
      "type": "function"
    },
    {
      "inputs": [
        {
          "internalType": "uint256",
          "name": "_productId",
          "type": "uint256"
        },
        {
          "internalType": "uint256",
          "name": "_rewards",
          "type": "uint256"
        }
      ],
      "name": "placeOrderUsingMoney",
      "outputs": [],
      "stateMutability": "payable",
      "type": "function"
    },
    {
      "inputs": [],
      "name": "productCount",
      "outputs": [
        {
          "internalType": "uint256",
          "name": "",
          "type": "uint256"
        }
      ],
      "stateMutability": "view",
      "type": "function"
    },
    {
      "inputs": [
        {
          "internalType": "uint256",
          "name": "_points",
          "type": "uint256"
        }
      ],
      "name": "updateRewards",
      "outputs": [],
      "stateMutability": "nonpayable",
      "type": "function"
    },
    {
      "inputs": [],
      "name": "userCount",
      "outputs": [
        {
          "internalType": "uint256",
          "name": "",
          "type": "uint256"
        }
      ],
      "stateMutability": "view",
      "type": "function"
    }
  ],
  "bytecode": "0x608060405234801561001057600080fd5b50611c29806100206000396000f3fe6080604052600436106100c25760003560e01c8063adad41cd1161007f578063e0f6ef8711610059578063e0f6ef8714610272578063e574609e1461029d578063edbece37146102c8578063fd3144f91461030a576100c2565b8063adad41cd146101c6578063b1e95e9414610208578063bf162d6714610231576100c2565b806307973ccf146100c7578063185756ae146100f25780632fdfb6b71461012f57806351ed8288146101585780638165fed514610181578063a6ed5aa1146101aa575b600080fd5b3480156100d357600080fd5b506100dc610333565b6040516100e99190611370565b60405180910390f35b3480156100fe57600080fd5b50610119600480360381019061011491906113fd565b610339565b6040516101269190611445565b60405180910390f35b34801561013b57600080fd5b50610156600480360381019061015191906115d2565b610359565b005b34801561016457600080fd5b5061017f600480360381019061017a9190611671565b6103de565b005b34801561018d57600080fd5b506101a860048036038101906101a3919061169e565b610562565b005b6101c460048036038101906101bf9190611759565b610643565b005b3480156101d257600080fd5b506101ed60048036038101906101e89190611671565b61098e565b6040516101ff96959493929190611821565b60405180910390f35b34801561021457600080fd5b5061022f600480360381019061022a9190611671565b610b62565b005b34801561023d57600080fd5b5061025860048036038101906102539190611671565b610bc4565b604051610269959493929190611897565b60405180910390f35b34801561027e57600080fd5b50610287610d0a565b6040516102949190611370565b60405180910390f35b3480156102a957600080fd5b506102b2610d10565b6040516102bf9190611370565b60405180910390f35b3480156102d457600080fd5b506102ef60048036038101906102ea91906113fd565b610d16565b60405161030196959493929190611907565b60405180910390f35b34801561031657600080fd5b50610331600480360381019061032c919061197d565b610f0a565b005b60015481565b60046020528060005260406000206000915054906101000a900460ff1681565b60008081548092919061036b90611a53565b91905055506000600560008054815260200190815260200160002090506000548160000181905550848160010190805190602001906103ab9291906111d5565b50838160020190805190602001906103c49291906111d5565b508181600401819055508281600301819055505050505050565b600460003373ffffffffffffffffffffffffffffffffffffffff1673ffffffffffffffffffffffffffffffffffffffff16815260200190815260200160002060009054906101000a900460ff1661046a576040517f08c379a000000000000000000000000000000000000000000000000000000000815260040161046190611ae8565b60405180910390fd5b6000600360003373ffffffffffffffffffffffffffffffffffffffff1673ffffffffffffffffffffffffffffffffffffffff168152602001908152602001600020905060006005600084815260200190815260200160002090508060030154826004015410156104d957600080fd5b80600301548260040160008282546104f19190611b08565b9250508190555080600501339080600181540180825580915050600190039060005260206000200160009091909190916101000a81548173ffffffffffffffffffffffffffffffffffffffff021916908373ffffffffffffffffffffffffffffffffffffffff160217905550505050565b6002600081548092919061057590611a53565b919050555060006040518060c00160405280600254815260200186815260200184815260200183815260200185815260200160008152509050806006600060025481526020019081526020016000206000820151816000015560208201518160010190805190602001906105ea9291906111d5565b5060408201518160020190805190602001906106079291906111d5565b5060608201518160030155608082015181600401908051906020019061062e9291906111d5565b5060a082015181600501559050505050505050565b600073ffffffffffffffffffffffffffffffffffffffff163373ffffffffffffffffffffffffffffffffffffffff16141561067d57600080fd5b6000600660008481526020019081526020016000206040518060c0016040529081600082015481526020016001820180546106b790611b6b565b80601f01602080910402602001604051908101604052809291908181526020018280546106e390611b6b565b80156107305780601f1061070557610100808354040283529160200191610730565b820191906000526020600020905b81548152906001019060200180831161071357829003601f168201915b5050505050815260200160028201805461074990611b6b565b80601f016020809104026020016040519081016040528092919081815260200182805461077590611b6b565b80156107c25780601f10610797576101008083540402835291602001916107c2565b820191906000526020600020905b8154815290600101906020018083116107a557829003601f168201915b50505050508152602001600382015481526020016004820180546107e590611b6b565b80601f016020809104026020016040519081016040528092919081815260200182805461081190611b6b565b801561085e5780601f106108335761010080835404028352916020019161085e565b820191906000526020600020905b81548152906001019060200180831161084157829003601f168201915b505050505081526020016005820154815250509050806060015134101561088457600080fd5b6000732f8fa2250012718cb7f66a0b804ee3f367b4bd1c905060018260a0018181516108b09190611b9d565b915081815250506000600360003373ffffffffffffffffffffffffffffffffffffffff1673ffffffffffffffffffffffffffffffffffffffff16815260200190815260200160002090508381600401600082825461090e9190611b9d565b925050819055508173ffffffffffffffffffffffffffffffffffffffff166108fc349081150290604051600060405180830381858888f1935050505015801561095b573d6000803e3d6000fd5b50806006018590806001815401808255809150506001900390600052602060002001600090919091909150555050505050565b60066020528060005260406000206000915090508060000154908060010180546109b790611b6b565b80601f01602080910402602001604051908101604052809291908181526020018280546109e390611b6b565b8015610a305780601f10610a0557610100808354040283529160200191610a30565b820191906000526020600020905b815481529060010190602001808311610a1357829003601f168201915b505050505090806002018054610a4590611b6b565b80601f0160208091040260200160405190810160405280929190818152602001828054610a7190611b6b565b8015610abe5780601f10610a9357610100808354040283529160200191610abe565b820191906000526020600020905b815481529060010190602001808311610aa157829003601f168201915b505050505090806003015490806004018054610ad990611b6b565b80601f0160208091040260200160405190810160405280929190818152602001828054610b0590611b6b565b8015610b525780601f10610b2757610100808354040283529160200191610b52565b820191906000526020600020905b815481529060010190602001808311610b3557829003601f168201915b5050505050908060050154905086565b6000600360003373ffffffffffffffffffffffffffffffffffffffff1673ffffffffffffffffffffffffffffffffffffffff168152602001908152602001600020905081816004016000828254610bb99190611b9d565b925050819055505050565b6005602052806000526040600020600091509050806000015490806001018054610bed90611b6b565b80601f0160208091040260200160405190810160405280929190818152602001828054610c1990611b6b565b8015610c665780601f10610c3b57610100808354040283529160200191610c66565b820191906000526020600020905b815481529060010190602001808311610c4957829003601f168201915b505050505090806002018054610c7b90611b6b565b80601f0160208091040260200160405190810160405280929190818152602001828054610ca790611b6b565b8015610cf45780601f10610cc957610100808354040283529160200191610cf4565b820191906000526020600020905b815481529060010190602001808311610cd757829003601f168201915b5050505050908060030154908060040154905085565b60025481565b60005481565b6003602052806000526040600020600091509050806000015490806001018054610d3f90611b6b565b80601f0160208091040260200160405190810160405280929190818152602001828054610d6b90611b6b565b8015610db85780601f10610d8d57610100808354040283529160200191610db8565b820191906000526020600020905b815481529060010190602001808311610d9b57829003601f168201915b505050505090806002018054610dcd90611b6b565b80601f0160208091040260200160405190810160405280929190818152602001828054610df990611b6b565b8015610e465780601f10610e1b57610100808354040283529160200191610e46565b820191906000526020600020905b815481529060010190602001808311610e2957829003601f168201915b5050505050908060030160009054906101000a900473ffffffffffffffffffffffffffffffffffffffff1690806004015490806005018054610e8790611b6b565b80601f0160208091040260200160405190810160405280929190818152602001828054610eb390611b6b565b8015610f005780601f10610ed557610100808354040283529160200191610f00565b820191906000526020600020905b815481529060010190602001808311610ee357829003601f168201915b5050505050905086565b600073ffffffffffffffffffffffffffffffffffffffff163373ffffffffffffffffffffffffffffffffffffffff161415610f4457600080fd5b60016000815480929190610f5790611a53565b91905055506000600360003373ffffffffffffffffffffffffffffffffffffffff1673ffffffffffffffffffffffffffffffffffffffff1681526020019081526020016000209050600154816000018190555083816001019080519060200190610fc29291906111d5565b50338160030160006101000a81548173ffffffffffffffffffffffffffffffffffffffff021916908373ffffffffffffffffffffffffffffffffffffffff1602179055508281600201908051906020019061101e9291906111d5565b50818160050190805190602001906110379291906111d5565b50600a816004018190555080600360003373ffffffffffffffffffffffffffffffffffffffff1673ffffffffffffffffffffffffffffffffffffffff1681526020019081526020016000206000820154816000015560018201816001019080546110a090611b6b565b6110ab92919061125b565b5060028201816002019080546110c090611b6b565b6110cb92919061125b565b506003820160009054906101000a900473ffffffffffffffffffffffffffffffffffffffff168160030160006101000a81548173ffffffffffffffffffffffffffffffffffffffff021916908373ffffffffffffffffffffffffffffffffffffffff16021790555060048201548160040155600582018160050190805461115190611b6b565b61115c92919061125b565b5060068201816006019080546111739291906112e8565b509050506001600460003373ffffffffffffffffffffffffffffffffffffffff1673ffffffffffffffffffffffffffffffffffffffff16815260200190815260200160002060006101000a81548160ff02191690831515021790555050505050565b8280546111e190611b6b565b90600052602060002090601f016020900481019282611203576000855561124a565b82601f1061121c57805160ff191683800117855561124a565b8280016001018555821561124a579182015b8281111561124957825182559160200191906001019061122e565b5b509050611257919061133a565b5090565b82805461126790611b6b565b90600052602060002090601f01602090048101928261128957600085556112d7565b82601f1061129a57805485556112d7565b828001600101855582156112d757600052602060002091601f016020900482015b828111156112d65782548255916001019190600101906112bb565b5b5090506112e4919061133a565b5090565b8280548282559060005260206000209081019282156113295760005260206000209182015b8281111561132857825482559160010191906001019061130d565b5b509050611336919061133a565b5090565b5b8082111561135357600081600090555060010161133b565b5090565b6000819050919050565b61136a81611357565b82525050565b60006020820190506113856000830184611361565b92915050565b6000604051905090565b600080fd5b600080fd5b600073ffffffffffffffffffffffffffffffffffffffff82169050919050565b60006113ca8261139f565b9050919050565b6113da816113bf565b81146113e557600080fd5b50565b6000813590506113f7816113d1565b92915050565b60006020828403121561141357611412611395565b5b6000611421848285016113e8565b91505092915050565b60008115159050919050565b61143f8161142a565b82525050565b600060208201905061145a6000830184611436565b92915050565b600080fd5b600080fd5b6000601f19601f8301169050919050565b7f4e487b7100000000000000000000000000000000000000000000000000000000600052604160045260246000fd5b6114b38261146a565b810181811067ffffffffffffffff821117156114d2576114d161147b565b5b80604052505050565b60006114e561138b565b90506114f182826114aa565b919050565b600067ffffffffffffffff8211156115115761151061147b565b5b61151a8261146a565b9050602081019050919050565b82818337600083830152505050565b6000611549611544846114f6565b6114db565b90508281526020810184848401111561156557611564611465565b5b611570848285611527565b509392505050565b600082601f83011261158d5761158c611460565b5b813561159d848260208601611536565b91505092915050565b6115af81611357565b81146115ba57600080fd5b50565b6000813590506115cc816115a6565b92915050565b600080600080608085870312156115ec576115eb611395565b5b600085013567ffffffffffffffff81111561160a5761160961139a565b5b61161687828801611578565b945050602085013567ffffffffffffffff8111156116375761163661139a565b5b61164387828801611578565b9350506040611654878288016115bd565b9250506060611665878288016115bd565b91505092959194509250565b60006020828403121561168757611686611395565b5b6000611695848285016115bd565b91505092915050565b600080600080608085870312156116b8576116b7611395565b5b600085013567ffffffffffffffff8111156116d6576116d561139a565b5b6116e287828801611578565b945050602085013567ffffffffffffffff8111156117035761170261139a565b5b61170f87828801611578565b935050604085013567ffffffffffffffff8111156117305761172f61139a565b5b61173c87828801611578565b925050606061174d878288016115bd565b91505092959194509250565b600080604083850312156117705761176f611395565b5b600061177e858286016115bd565b925050602061178f858286016115bd565b9150509250929050565b600081519050919050565b600082825260208201905092915050565b60005b838110156117d35780820151818401526020810190506117b8565b838111156117e2576000848401525b50505050565b60006117f382611799565b6117fd81856117a4565b935061180d8185602086016117b5565b6118168161146a565b840191505092915050565b600060c0820190506118366000830189611361565b818103602083015261184881886117e8565b9050818103604083015261185c81876117e8565b905061186b6060830186611361565b818103608083015261187d81856117e8565b905061188c60a0830184611361565b979650505050505050565b600060a0820190506118ac6000830188611361565b81810360208301526118be81876117e8565b905081810360408301526118d281866117e8565b90506118e16060830185611361565b6118ee6080830184611361565b9695505050505050565b611901816113bf565b82525050565b600060c08201905061191c6000830189611361565b818103602083015261192e81886117e8565b9050818103604083015261194281876117e8565b905061195160608301866118f8565b61195e6080830185611361565b81810360a083015261197081846117e8565b9050979650505050505050565b60008060006060848603121561199657611995611395565b5b600084013567ffffffffffffffff8111156119b4576119b361139a565b5b6119c086828701611578565b935050602084013567ffffffffffffffff8111156119e1576119e061139a565b5b6119ed86828701611578565b925050604084013567ffffffffffffffff811115611a0e57611a0d61139a565b5b611a1a86828701611578565b9150509250925092565b7f4e487b7100000000000000000000000000000000000000000000000000000000600052601160045260246000fd5b6000611a5e82611357565b91507fffffffffffffffffffffffffffffffffffffffffffffffffffffffffffffffff821415611a9157611a90611a24565b5b600182019050919050565b7f6e6f206164647265737300000000000000000000000000000000000000000000600082015250565b6000611ad2600a836117a4565b9150611add82611a9c565b602082019050919050565b60006020820190508181036000830152611b0181611ac5565b9050919050565b6000611b1382611357565b9150611b1e83611357565b925082821015611b3157611b30611a24565b5b828203905092915050565b7f4e487b7100000000000000000000000000000000000000000000000000000000600052602260045260246000fd5b60006002820490506001821680611b8357607f821691505b60208210811415611b9757611b96611b3c565b5b50919050565b6000611ba882611357565b9150611bb383611357565b9250827fffffffffffffffffffffffffffffffffffffffffffffffffffffffffffffffff03821115611be857611be7611a24565b5b82820190509291505056fea26469706673582212206f6678dbed961977c90d6f5a116af1a791ef20b258560408813a27767ab8865564736f6c63430008090033",
  "linkReferences": {},
  "deployedLinkReferences": {}
}