{
  "_format": "hh-sol-artifact-1",
  "contractName": "Cafe",
  "sourceName": "contracts/Cafe.sol",
  "abi": [
    {
      "inputs": [
        {
          "internalType": "string",
          "name": "_name",
          "type": "string"
        },
        {
          "internalType": "string",
          "name": "_details",
          "type": "string"
        },
        {
          "internalType": "uint256",
          "name": "_tokenRequired",
          "type": "uint256"
        },
        {
          "internalType": "uint256",
          "name": "_level",
          "type": "uint256"
        }
      ],
      "name": "addNFT",
      "outputs": [],
      "stateMutability": "nonpayable",
      "type": "function"
    },
    {
      "inputs": [
        {
          "internalType": "string",
          "name": "_name",
          "type": "string"
        },
        {
          "internalType": "string",
          "name": "_productDescription",
          "type": "string"
        },
        {
          "internalType": "string",
          "name": "_productImage",
          "type": "string"
        },
        {
          "internalType": "uint256",
          "name": "_price",
          "type": "uint256"
        }
      ],
      "name": "addProduct",
      "outputs": [],
      "stateMutability": "nonpayable",
      "type": "function"
    },
    {
      "inputs": [
        {
          "internalType": "string",
          "name": "_name",
          "type": "string"
        },
        {
          "internalType": "string",
          "name": "_email",
          "type": "string"
        },
        {
          "internalType": "string",
          "name": "_profileImage",
          "type": "string"
        }
      ],
      "name": "addUserProfile",
      "outputs": [],
      "stateMutability": "nonpayable",
      "type": "function"
    },
    {
      "inputs": [
        {
          "internalType": "uint256",
          "name": "",
          "type": "uint256"
        }
      ],
      "name": "allNFTs",
      "outputs": [
        {
          "internalType": "uint256",
          "name": "nftId",
          "type": "uint256"
        },
        {
          "internalType": "string",
          "name": "name",
          "type": "string"
        },
        {
          "internalType": "string",
          "name": "description",
          "type": "string"
        },
        {
          "internalType": "uint256",
          "name": "tokenRequired",
          "type": "uint256"
        },
        {
          "internalType": "uint256",
          "name": "level",
          "type": "uint256"
        }
      ],
      "stateMutability": "view",
      "type": "function"
    },
    {
      "inputs": [
        {
          "internalType": "uint256",
          "name": "",
          "type": "uint256"
        }
      ],
      "name": "allProduct",
      "outputs": [
        {
          "internalType": "uint256",
          "name": "productId",
          "type": "uint256"
        },
        {
          "internalType": "string",
          "name": "name",
          "type": "string"
        },
        {
          "internalType": "string",
          "name": "productImage",
          "type": "string"
        },
        {
          "internalType": "uint256",
          "name": "price",
          "type": "uint256"
        },
        {
          "internalType": "string",
          "name": "productDescription",
          "type": "string"
        },
        {
          "internalType": "uint256",
          "name": "count",
          "type": "uint256"
        }
      ],
      "stateMutability": "view",
      "type": "function"
    },
    {
      "inputs": [
        {
          "internalType": "address",
          "name": "",
          "type": "address"
        }
      ],
      "name": "allUsers",
      "outputs": [
        {
          "internalType": "uint256",
          "name": "userId",
          "type": "uint256"
        },
        {
          "internalType": "string",
          "name": "name",
          "type": "string"
        },
        {
          "internalType": "string",
          "name": "email",
          "type": "string"
        },
        {
          "internalType": "address",
          "name": "walletAddress",
          "type": "address"
        },
        {
          "internalType": "uint256",
          "name": "pointsBalance",
          "type": "uint256"
        },
        {
          "internalType": "string",
          "name": "profileImage",
          "type": "string"
        }
      ],
      "stateMutability": "view",
      "type": "function"
    },
    {
      "inputs": [
        {
          "internalType": "uint256",
          "name": "_nftId",
          "type": "uint256"
        }
      ],
      "name": "buyNFT",
      "outputs": [],
      "stateMutability": "nonpayable",
      "type": "function"
    },
    {
      "inputs": [
        {
          "internalType": "address",
          "name": "",
          "type": "address"
        }
      ],
      "name": "isProfileSet",
      "outputs": [
        {
          "internalType": "bool",
          "name": "",
          "type": "bool"
        }
      ],
      "stateMutability": "view",
      "type": "function"
    },
    {
      "inputs": [],
      "name": "nftCounter",
      "outputs": [
        {
          "internalType": "uint256",
          "name": "",
          "type": "uint256"
        }
      ],
      "stateMutability": "view",
      "type": "function"
    },
    {
      "inputs": [
        {
          "internalType": "uint256",
          "name": "_productId",
          "type": "uint256"
        },
        {
          "internalType": "uint256",
          "name": "_rewards",
          "type": "uint256"
        }
      ],
      "name": "placeOrderUsingMoney",
      "outputs": [],
      "stateMutability": "payable",
      "type": "function"
    },
    {
      "inputs": [],
      "name": "productCount",
      "outputs": [
        {
          "internalType": "uint256",
          "name": "",
          "type": "uint256"
        }
      ],
      "stateMutability": "view",
      "type": "function"
    },
    {
      "inputs": [],
      "name": "userCount",
      "outputs": [
        {
          "internalType": "uint256",
          "name": "",
          "type": "uint256"
        }
      ],
      "stateMutability": "view",
      "type": "function"
    }
  ],
  "bytecode": "0x608060405234801561001057600080fd5b50611b83806100206000396000f3fe6080604052600436106100a75760003560e01c8063adad41cd11610064578063adad41cd146101ab578063bf162d67146101ed578063e0f6ef871461022e578063e574609e14610259578063edbece3714610284578063fd3144f9146102c6576100a7565b806307973ccf146100ac578063185756ae146100d75780632fdfb6b71461011457806351ed82881461013d5780638165fed514610166578063a6ed5aa11461018f575b600080fd5b3480156100b857600080fd5b506100c16102ef565b6040516100ce91906112ca565b60405180910390f35b3480156100e357600080fd5b506100fe60048036038101906100f99190611357565b6102f5565b60405161010b919061139f565b60405180910390f35b34801561012057600080fd5b5061013b6004803603810190610136919061152c565b610315565b005b34801561014957600080fd5b50610164600480360381019061015f91906115cb565b61039a565b005b34801561017257600080fd5b5061018d600480360381019061018891906115f8565b61051e565b005b6101a960048036038101906101a491906116b3565b6105ff565b005b3480156101b757600080fd5b506101d260048036038101906101cd91906115cb565b61094a565b6040516101e49695949392919061177b565b60405180910390f35b3480156101f957600080fd5b50610214600480360381019061020f91906115cb565b610b1e565b6040516102259594939291906117f1565b60405180910390f35b34801561023a57600080fd5b50610243610c64565b60405161025091906112ca565b60405180910390f35b34801561026557600080fd5b5061026e610c6a565b60405161027b91906112ca565b60405180910390f35b34801561029057600080fd5b506102ab60048036038101906102a69190611357565b610c70565b6040516102bd96959493929190611861565b60405180910390f35b3480156102d257600080fd5b506102ed60048036038101906102e891906118d7565b610e64565b005b60015481565b60046020528060005260406000206000915054906101000a900460ff1681565b600080815480929190610327906119ad565b919050555060006005600080548152602001908152602001600020905060005481600001819055508481600101908051906020019061036792919061112f565b508381600201908051906020019061038092919061112f565b508181600401819055508281600301819055505050505050565b600460003373ffffffffffffffffffffffffffffffffffffffff1673ffffffffffffffffffffffffffffffffffffffff16815260200190815260200160002060009054906101000a900460ff16610426576040517f08c379a000000000000000000000000000000000000000000000000000000000815260040161041d90611a42565b60405180910390fd5b6000600360003373ffffffffffffffffffffffffffffffffffffffff1673ffffffffffffffffffffffffffffffffffffffff1681526020019081526020016000209050600060056000848152602001908152602001600020905080600301548260040154101561049557600080fd5b80600301548260040160008282546104ad9190611a62565b9250508190555080600501339080600181540180825580915050600190039060005260206000200160009091909190916101000a81548173ffffffffffffffffffffffffffffffffffffffff021916908373ffffffffffffffffffffffffffffffffffffffff160217905550505050565b60026000815480929190610531906119ad565b919050555060006040518060c00160405280600254815260200186815260200184815260200183815260200185815260200160008152509050806006600060025481526020019081526020016000206000820151816000015560208201518160010190805190602001906105a692919061112f565b5060408201518160020190805190602001906105c392919061112f565b506060820151816003015560808201518160040190805190602001906105ea92919061112f565b5060a082015181600501559050505050505050565b600073ffffffffffffffffffffffffffffffffffffffff163373ffffffffffffffffffffffffffffffffffffffff16141561063957600080fd5b6000600660008481526020019081526020016000206040518060c00160405290816000820154815260200160018201805461067390611ac5565b80601f016020809104026020016040519081016040528092919081815260200182805461069f90611ac5565b80156106ec5780601f106106c1576101008083540402835291602001916106ec565b820191906000526020600020905b8154815290600101906020018083116106cf57829003601f168201915b5050505050815260200160028201805461070590611ac5565b80601f016020809104026020016040519081016040528092919081815260200182805461073190611ac5565b801561077e5780601f106107535761010080835404028352916020019161077e565b820191906000526020600020905b81548152906001019060200180831161076157829003601f168201915b50505050508152602001600382015481526020016004820180546107a190611ac5565b80601f01602080910402602001604051908101604052809291908181526020018280546107cd90611ac5565b801561081a5780601f106107ef5761010080835404028352916020019161081a565b820191906000526020600020905b8154815290600101906020018083116107fd57829003601f168201915b505050505081526020016005820154815250509050806060015134101561084057600080fd5b6000732f8fa2250012718cb7f66a0b804ee3f367b4bd1c905060018260a00181815161086c9190611af7565b915081815250506000600360003373ffffffffffffffffffffffffffffffffffffffff1673ffffffffffffffffffffffffffffffffffffffff1681526020019081526020016000209050838160040160008282546108ca9190611af7565b925050819055508173ffffffffffffffffffffffffffffffffffffffff166108fc349081150290604051600060405180830381858888f19350505050158015610917573d6000803e3d6000fd5b50806006018590806001815401808255809150506001900390600052602060002001600090919091909150555050505050565b600660205280600052604060002060009150905080600001549080600101805461097390611ac5565b80601f016020809104026020016040519081016040528092919081815260200182805461099f90611ac5565b80156109ec5780601f106109c1576101008083540402835291602001916109ec565b820191906000526020600020905b8154815290600101906020018083116109cf57829003601f168201915b505050505090806002018054610a0190611ac5565b80601f0160208091040260200160405190810160405280929190818152602001828054610a2d90611ac5565b8015610a7a5780601f10610a4f57610100808354040283529160200191610a7a565b820191906000526020600020905b815481529060010190602001808311610a5d57829003601f168201915b505050505090806003015490806004018054610a9590611ac5565b80601f0160208091040260200160405190810160405280929190818152602001828054610ac190611ac5565b8015610b0e5780601f10610ae357610100808354040283529160200191610b0e565b820191906000526020600020905b815481529060010190602001808311610af157829003601f168201915b5050505050908060050154905086565b6005602052806000526040600020600091509050806000015490806001018054610b4790611ac5565b80601f0160208091040260200160405190810160405280929190818152602001828054610b7390611ac5565b8015610bc05780601f10610b9557610100808354040283529160200191610bc0565b820191906000526020600020905b815481529060010190602001808311610ba357829003601f168201915b505050505090806002018054610bd590611ac5565b80601f0160208091040260200160405190810160405280929190818152602001828054610c0190611ac5565b8015610c4e5780601f10610c2357610100808354040283529160200191610c4e565b820191906000526020600020905b815481529060010190602001808311610c3157829003601f168201915b5050505050908060030154908060040154905085565b60025481565b60005481565b6003602052806000526040600020600091509050806000015490806001018054610c9990611ac5565b80601f0160208091040260200160405190810160405280929190818152602001828054610cc590611ac5565b8015610d125780601f10610ce757610100808354040283529160200191610d12565b820191906000526020600020905b815481529060010190602001808311610cf557829003601f168201915b505050505090806002018054610d2790611ac5565b80601f0160208091040260200160405190810160405280929190818152602001828054610d5390611ac5565b8015610da05780601f10610d7557610100808354040283529160200191610da0565b820191906000526020600020905b815481529060010190602001808311610d8357829003601f168201915b5050505050908060030160009054906101000a900473ffffffffffffffffffffffffffffffffffffffff1690806004015490806005018054610de190611ac5565b80601f0160208091040260200160405190810160405280929190818152602001828054610e0d90611ac5565b8015610e5a5780601f10610e2f57610100808354040283529160200191610e5a565b820191906000526020600020905b815481529060010190602001808311610e3d57829003601f168201915b5050505050905086565b600073ffffffffffffffffffffffffffffffffffffffff163373ffffffffffffffffffffffffffffffffffffffff161415610e9e57600080fd5b60016000815480929190610eb1906119ad565b91905055506000600360003373ffffffffffffffffffffffffffffffffffffffff1673ffffffffffffffffffffffffffffffffffffffff1681526020019081526020016000209050600154816000018190555083816001019080519060200190610f1c92919061112f565b50338160030160006101000a81548173ffffffffffffffffffffffffffffffffffffffff021916908373ffffffffffffffffffffffffffffffffffffffff16021790555082816002019080519060200190610f7892919061112f565b5081816005019080519060200190610f9192919061112f565b50600a816004018190555080600360003373ffffffffffffffffffffffffffffffffffffffff1673ffffffffffffffffffffffffffffffffffffffff168152602001908152602001600020600082015481600001556001820181600101908054610ffa90611ac5565b6110059291906111b5565b50600282018160020190805461101a90611ac5565b6110259291906111b5565b506003820160009054906101000a900473ffffffffffffffffffffffffffffffffffffffff168160030160006101000a81548173ffffffffffffffffffffffffffffffffffffffff021916908373ffffffffffffffffffffffffffffffffffffffff1602179055506004820154816004015560058201816005019080546110ab90611ac5565b6110b69291906111b5565b5060068201816006019080546110cd929190611242565b509050506001600460003373ffffffffffffffffffffffffffffffffffffffff1673ffffffffffffffffffffffffffffffffffffffff16815260200190815260200160002060006101000a81548160ff02191690831515021790555050505050565b82805461113b90611ac5565b90600052602060002090601f01602090048101928261115d57600085556111a4565b82601f1061117657805160ff19168380011785556111a4565b828001600101855582156111a4579182015b828111156111a3578251825591602001919060010190611188565b5b5090506111b19190611294565b5090565b8280546111c190611ac5565b90600052602060002090601f0160209004810192826111e35760008555611231565b82601f106111f45780548555611231565b8280016001018555821561123157600052602060002091601f016020900482015b82811115611230578254825591600101919060010190611215565b5b50905061123e9190611294565b5090565b8280548282559060005260206000209081019282156112835760005260206000209182015b82811115611282578254825591600101919060010190611267565b5b5090506112909190611294565b5090565b5b808211156112ad576000816000905550600101611295565b5090565b6000819050919050565b6112c4816112b1565b82525050565b60006020820190506112df60008301846112bb565b92915050565b6000604051905090565b600080fd5b600080fd5b600073ffffffffffffffffffffffffffffffffffffffff82169050919050565b6000611324826112f9565b9050919050565b61133481611319565b811461133f57600080fd5b50565b6000813590506113518161132b565b92915050565b60006020828403121561136d5761136c6112ef565b5b600061137b84828501611342565b91505092915050565b60008115159050919050565b61139981611384565b82525050565b60006020820190506113b46000830184611390565b92915050565b600080fd5b600080fd5b6000601f19601f8301169050919050565b7f4e487b7100000000000000000000000000000000000000000000000000000000600052604160045260246000fd5b61140d826113c4565b810181811067ffffffffffffffff8211171561142c5761142b6113d5565b5b80604052505050565b600061143f6112e5565b905061144b8282611404565b919050565b600067ffffffffffffffff82111561146b5761146a6113d5565b5b611474826113c4565b9050602081019050919050565b82818337600083830152505050565b60006114a361149e84611450565b611435565b9050828152602081018484840111156114bf576114be6113bf565b5b6114ca848285611481565b509392505050565b600082601f8301126114e7576114e66113ba565b5b81356114f7848260208601611490565b91505092915050565b611509816112b1565b811461151457600080fd5b50565b60008135905061152681611500565b92915050565b60008060008060808587031215611546576115456112ef565b5b600085013567ffffffffffffffff811115611564576115636112f4565b5b611570878288016114d2565b945050602085013567ffffffffffffffff811115611591576115906112f4565b5b61159d878288016114d2565b93505060406115ae87828801611517565b92505060606115bf87828801611517565b91505092959194509250565b6000602082840312156115e1576115e06112ef565b5b60006115ef84828501611517565b91505092915050565b60008060008060808587031215611612576116116112ef565b5b600085013567ffffffffffffffff8111156116305761162f6112f4565b5b61163c878288016114d2565b945050602085013567ffffffffffffffff81111561165d5761165c6112f4565b5b611669878288016114d2565b935050604085013567ffffffffffffffff81111561168a576116896112f4565b5b611696878288016114d2565b92505060606116a787828801611517565b91505092959194509250565b600080604083850312156116ca576116c96112ef565b5b60006116d885828601611517565b92505060206116e985828601611517565b9150509250929050565b600081519050919050565b600082825260208201905092915050565b60005b8381101561172d578082015181840152602081019050611712565b8381111561173c576000848401525b50505050565b600061174d826116f3565b61175781856116fe565b935061176781856020860161170f565b611770816113c4565b840191505092915050565b600060c08201905061179060008301896112bb565b81810360208301526117a28188611742565b905081810360408301526117b68187611742565b90506117c560608301866112bb565b81810360808301526117d78185611742565b90506117e660a08301846112bb565b979650505050505050565b600060a08201905061180660008301886112bb565b81810360208301526118188187611742565b9050818103604083015261182c8186611742565b905061183b60608301856112bb565b61184860808301846112bb565b9695505050505050565b61185b81611319565b82525050565b600060c08201905061187660008301896112bb565b81810360208301526118888188611742565b9050818103604083015261189c8187611742565b90506118ab6060830186611852565b6118b860808301856112bb565b81810360a08301526118ca8184611742565b9050979650505050505050565b6000806000606084860312156118f0576118ef6112ef565b5b600084013567ffffffffffffffff81111561190e5761190d6112f4565b5b61191a868287016114d2565b935050602084013567ffffffffffffffff81111561193b5761193a6112f4565b5b611947868287016114d2565b925050604084013567ffffffffffffffff811115611968576119676112f4565b5b611974868287016114d2565b9150509250925092565b7f4e487b7100000000000000000000000000000000000000000000000000000000600052601160045260246000fd5b60006119b8826112b1565b91507fffffffffffffffffffffffffffffffffffffffffffffffffffffffffffffffff8214156119eb576119ea61197e565b5b600182019050919050565b7f6e6f206164647265737300000000000000000000000000000000000000000000600082015250565b6000611a2c600a836116fe565b9150611a37826119f6565b602082019050919050565b60006020820190508181036000830152611a5b81611a1f565b9050919050565b6000611a6d826112b1565b9150611a78836112b1565b925082821015611a8b57611a8a61197e565b5b828203905092915050565b7f4e487b7100000000000000000000000000000000000000000000000000000000600052602260045260246000fd5b60006002820490506001821680611add57607f821691505b60208210811415611af157611af0611a96565b5b50919050565b6000611b02826112b1565b9150611b0d836112b1565b9250827fffffffffffffffffffffffffffffffffffffffffffffffffffffffffffffffff03821115611b4257611b4161197e565b5b82820190509291505056fea26469706673582212206a0d27905065f734dddbcceb02105bfd5bbbbfd53f33fc8b7a79ee3f9299096564736f6c63430008090033",
  "linkReferences": {},
  "deployedLinkReferences": {}
}