{
  "_format": "hh-sol-artifact-1",
  "contractName": "Cafe",
  "sourceName": "contracts/Cafe.sol",
  "abi": [
    {
      "inputs": [
        {
          "internalType": "string",
          "name": "_name",
          "type": "string"
        },
        {
          "internalType": "string",
          "name": "_details",
          "type": "string"
        },
        {
          "internalType": "uint256",
          "name": "_tokenRequired",
          "type": "uint256"
        },
        {
          "internalType": "uint256",
          "name": "_level",
          "type": "uint256"
        }
      ],
      "name": "addNFT",
      "outputs": [],
      "stateMutability": "nonpayable",
      "type": "function"
    },
    {
      "inputs": [
        {
          "internalType": "string",
          "name": "_name",
          "type": "string"
        },
        {
          "internalType": "string",
          "name": "_productDescription",
          "type": "string"
        },
        {
          "internalType": "string",
          "name": "_productImage",
          "type": "string"
        },
        {
          "internalType": "uint256",
          "name": "_price",
          "type": "uint256"
        }
      ],
      "name": "addProduct",
      "outputs": [],
      "stateMutability": "nonpayable",
      "type": "function"
    },
    {
      "inputs": [
        {
          "internalType": "string",
          "name": "_name",
          "type": "string"
        },
        {
          "internalType": "string",
          "name": "_email",
          "type": "string"
        },
        {
          "internalType": "string",
          "name": "_profileImage",
          "type": "string"
        }
      ],
      "name": "addUserProfile",
      "outputs": [],
      "stateMutability": "nonpayable",
      "type": "function"
    },
    {
      "inputs": [
        {
          "internalType": "uint256",
          "name": "",
          "type": "uint256"
        }
      ],
      "name": "allNFTs",
      "outputs": [
        {
          "internalType": "uint256",
          "name": "nftId",
          "type": "uint256"
        },
        {
          "internalType": "string",
          "name": "name",
          "type": "string"
        },
        {
          "internalType": "string",
          "name": "description",
          "type": "string"
        },
        {
          "internalType": "uint256",
          "name": "tokenRequired",
          "type": "uint256"
        },
        {
          "internalType": "uint256",
          "name": "level",
          "type": "uint256"
        }
      ],
      "stateMutability": "view",
      "type": "function"
    },
    {
      "inputs": [
        {
          "internalType": "uint256",
          "name": "",
          "type": "uint256"
        }
      ],
      "name": "allProduct",
      "outputs": [
        {
          "internalType": "uint256",
          "name": "productId",
          "type": "uint256"
        },
        {
          "internalType": "string",
          "name": "name",
          "type": "string"
        },
        {
          "internalType": "string",
          "name": "productImage",
          "type": "string"
        },
        {
          "internalType": "uint256",
          "name": "price",
          "type": "uint256"
        },
        {
          "internalType": "string",
          "name": "productDescription",
          "type": "string"
        },
        {
          "internalType": "uint256",
          "name": "count",
          "type": "uint256"
        }
      ],
      "stateMutability": "view",
      "type": "function"
    },
    {
      "inputs": [
        {
          "internalType": "address",
          "name": "",
          "type": "address"
        }
      ],
      "name": "allUsers",
      "outputs": [
        {
          "internalType": "uint256",
          "name": "userId",
          "type": "uint256"
        },
        {
          "internalType": "string",
          "name": "name",
          "type": "string"
        },
        {
          "internalType": "string",
          "name": "email",
          "type": "string"
        },
        {
          "internalType": "address",
          "name": "walletAddress",
          "type": "address"
        },
        {
          "internalType": "uint256",
          "name": "pointsBalance",
          "type": "uint256"
        },
        {
          "internalType": "string",
          "name": "profileImage",
          "type": "string"
        }
      ],
      "stateMutability": "view",
      "type": "function"
    },
    {
      "inputs": [
        {
          "internalType": "uint256",
          "name": "",
          "type": "uint256"
        }
      ],
      "name": "allUsersAddress",
      "outputs": [
        {
          "internalType": "address",
          "name": "",
          "type": "address"
        }
      ],
      "stateMutability": "view",
      "type": "function"
    },
    {
      "inputs": [
        {
          "internalType": "uint256",
          "name": "_nftId",
          "type": "uint256"
        }
      ],
      "name": "buyNFT",
      "outputs": [],
      "stateMutability": "nonpayable",
      "type": "function"
    },
    {
      "inputs": [
        {
          "internalType": "address",
          "name": "",
          "type": "address"
        }
      ],
      "name": "isProfileSet",
      "outputs": [
        {
          "internalType": "bool",
          "name": "",
          "type": "bool"
        }
      ],
      "stateMutability": "view",
      "type": "function"
    },
    {
      "inputs": [],
      "name": "nftCounter",
      "outputs": [
        {
          "internalType": "uint256",
          "name": "",
          "type": "uint256"
        }
      ],
      "stateMutability": "view",
      "type": "function"
    },
    {
      "inputs": [
        {
          "internalType": "uint256",
          "name": "_productId",
          "type": "uint256"
        },
        {
          "internalType": "uint256",
          "name": "_rewards",
          "type": "uint256"
        }
      ],
      "name": "placeOrderUsingMoney",
      "outputs": [],
      "stateMutability": "payable",
      "type": "function"
    },
    {
      "inputs": [],
      "name": "productCount",
      "outputs": [
        {
          "internalType": "uint256",
          "name": "",
          "type": "uint256"
        }
      ],
      "stateMutability": "view",
      "type": "function"
    },
    {
      "inputs": [
        {
          "internalType": "uint256",
          "name": "_points",
          "type": "uint256"
        }
      ],
      "name": "updateRewards",
      "outputs": [],
      "stateMutability": "nonpayable",
      "type": "function"
    },
    {
      "inputs": [],
      "name": "userCount",
      "outputs": [
        {
          "internalType": "uint256",
          "name": "",
          "type": "uint256"
        }
      ],
      "stateMutability": "view",
      "type": "function"
    }
  ],
  "bytecode": "0x608060405234801561001057600080fd5b50611d23806100206000396000f3fe6080604052600436106100dd5760003560e01c8063adad41cd1161007f578063e0f6ef8711610059578063e0f6ef87146102ca578063e574609e146102f5578063edbece3714610320578063fd3144f914610362576100dd565b8063adad41cd1461021e578063b1e95e9414610260578063bf162d6714610289576100dd565b806351ed8288116100bb57806351ed8288146101735780638165fed51461019c5780639f1953c3146101c5578063a6ed5aa114610202576100dd565b806307973ccf146100e2578063185756ae1461010d5780632fdfb6b71461014a575b600080fd5b3480156100ee57600080fd5b506100f761038b565b604051610104919061144f565b60405180910390f35b34801561011957600080fd5b50610134600480360381019061012f91906114dc565b610391565b6040516101419190611524565b60405180910390f35b34801561015657600080fd5b50610171600480360381019061016c91906116b1565b6103b1565b005b34801561017f57600080fd5b5061019a60048036038101906101959190611750565b610436565b005b3480156101a857600080fd5b506101c360048036038101906101be919061177d565b6105ba565b005b3480156101d157600080fd5b506101ec60048036038101906101e79190611750565b61069b565b6040516101f99190611847565b60405180910390f35b61021c60048036038101906102179190611862565b6106ce565b005b34801561022a57600080fd5b5061024560048036038101906102409190611750565b610a19565b6040516102579695949392919061192a565b60405180910390f35b34801561026c57600080fd5b5061028760048036038101906102829190611750565b610bed565b005b34801561029557600080fd5b506102b060048036038101906102ab9190611750565b610c4f565b6040516102c19594939291906119a0565b60405180910390f35b3480156102d657600080fd5b506102df610d95565b6040516102ec919061144f565b60405180910390f35b34801561030157600080fd5b5061030a610d9b565b604051610317919061144f565b60405180910390f35b34801561032c57600080fd5b50610347600480360381019061034291906114dc565b610da1565b60405161035996959493929190611a01565b60405180910390f35b34801561036e57600080fd5b5061038960048036038101906103849190611a77565b610f95565b005b60015481565b60056020528060005260406000206000915054906101000a900460ff1681565b6000808154809291906103c390611b4d565b91905055506000600660008054815260200190815260200160002090506000548160000181905550848160010190805190602001906104039291906112b4565b508381600201908051906020019061041c9291906112b4565b508181600401819055508281600301819055505050505050565b600560003373ffffffffffffffffffffffffffffffffffffffff1673ffffffffffffffffffffffffffffffffffffffff16815260200190815260200160002060009054906101000a900460ff166104c2576040517f08c379a00000000000000000000000000000000000000000000000000000000081526004016104b990611be2565b60405180910390fd5b6000600360003373ffffffffffffffffffffffffffffffffffffffff1673ffffffffffffffffffffffffffffffffffffffff1681526020019081526020016000209050600060066000848152602001908152602001600020905080600301548260040154101561053157600080fd5b80600301548260040160008282546105499190611c02565b9250508190555080600501339080600181540180825580915050600190039060005260206000200160009091909190916101000a81548173ffffffffffffffffffffffffffffffffffffffff021916908373ffffffffffffffffffffffffffffffffffffffff160217905550505050565b600260008154809291906105cd90611b4d565b919050555060006040518060c00160405280600254815260200186815260200184815260200183815260200185815260200160008152509050806007600060025481526020019081526020016000206000820151816000015560208201518160010190805190602001906106429291906112b4565b50604082015181600201908051906020019061065f9291906112b4565b506060820151816003015560808201518160040190805190602001906106869291906112b4565b5060a082015181600501559050505050505050565b60046020528060005260406000206000915054906101000a900473ffffffffffffffffffffffffffffffffffffffff1681565b600073ffffffffffffffffffffffffffffffffffffffff163373ffffffffffffffffffffffffffffffffffffffff16141561070857600080fd5b6000600760008481526020019081526020016000206040518060c00160405290816000820154815260200160018201805461074290611c65565b80601f016020809104026020016040519081016040528092919081815260200182805461076e90611c65565b80156107bb5780601f10610790576101008083540402835291602001916107bb565b820191906000526020600020905b81548152906001019060200180831161079e57829003601f168201915b505050505081526020016002820180546107d490611c65565b80601f016020809104026020016040519081016040528092919081815260200182805461080090611c65565b801561084d5780601f106108225761010080835404028352916020019161084d565b820191906000526020600020905b81548152906001019060200180831161083057829003601f168201915b505050505081526020016003820154815260200160048201805461087090611c65565b80601f016020809104026020016040519081016040528092919081815260200182805461089c90611c65565b80156108e95780601f106108be576101008083540402835291602001916108e9565b820191906000526020600020905b8154815290600101906020018083116108cc57829003601f168201915b505050505081526020016005820154815250509050806060015134101561090f57600080fd5b6000732f8fa2250012718cb7f66a0b804ee3f367b4bd1c905060018260a00181815161093b9190611c97565b915081815250506000600360003373ffffffffffffffffffffffffffffffffffffffff1673ffffffffffffffffffffffffffffffffffffffff1681526020019081526020016000209050838160040160008282546109999190611c97565b925050819055508173ffffffffffffffffffffffffffffffffffffffff166108fc349081150290604051600060405180830381858888f193505050501580156109e6573d6000803e3d6000fd5b50806006018590806001815401808255809150506001900390600052602060002001600090919091909150555050505050565b6007602052806000526040600020600091509050806000015490806001018054610a4290611c65565b80601f0160208091040260200160405190810160405280929190818152602001828054610a6e90611c65565b8015610abb5780601f10610a9057610100808354040283529160200191610abb565b820191906000526020600020905b815481529060010190602001808311610a9e57829003601f168201915b505050505090806002018054610ad090611c65565b80601f0160208091040260200160405190810160405280929190818152602001828054610afc90611c65565b8015610b495780601f10610b1e57610100808354040283529160200191610b49565b820191906000526020600020905b815481529060010190602001808311610b2c57829003601f168201915b505050505090806003015490806004018054610b6490611c65565b80601f0160208091040260200160405190810160405280929190818152602001828054610b9090611c65565b8015610bdd5780601f10610bb257610100808354040283529160200191610bdd565b820191906000526020600020905b815481529060010190602001808311610bc057829003601f168201915b5050505050908060050154905086565b6000600360003373ffffffffffffffffffffffffffffffffffffffff1673ffffffffffffffffffffffffffffffffffffffff168152602001908152602001600020905081816004016000828254610c449190611c97565b925050819055505050565b6006602052806000526040600020600091509050806000015490806001018054610c7890611c65565b80601f0160208091040260200160405190810160405280929190818152602001828054610ca490611c65565b8015610cf15780601f10610cc657610100808354040283529160200191610cf1565b820191906000526020600020905b815481529060010190602001808311610cd457829003601f168201915b505050505090806002018054610d0690611c65565b80601f0160208091040260200160405190810160405280929190818152602001828054610d3290611c65565b8015610d7f5780601f10610d5457610100808354040283529160200191610d7f565b820191906000526020600020905b815481529060010190602001808311610d6257829003601f168201915b5050505050908060030154908060040154905085565b60025481565b60005481565b6003602052806000526040600020600091509050806000015490806001018054610dca90611c65565b80601f0160208091040260200160405190810160405280929190818152602001828054610df690611c65565b8015610e435780601f10610e1857610100808354040283529160200191610e43565b820191906000526020600020905b815481529060010190602001808311610e2657829003601f168201915b505050505090806002018054610e5890611c65565b80601f0160208091040260200160405190810160405280929190818152602001828054610e8490611c65565b8015610ed15780601f10610ea657610100808354040283529160200191610ed1565b820191906000526020600020905b815481529060010190602001808311610eb457829003601f168201915b5050505050908060030160009054906101000a900473ffffffffffffffffffffffffffffffffffffffff1690806004015490806005018054610f1290611c65565b80601f0160208091040260200160405190810160405280929190818152602001828054610f3e90611c65565b8015610f8b5780601f10610f6057610100808354040283529160200191610f8b565b820191906000526020600020905b815481529060010190602001808311610f6e57829003601f168201915b5050505050905086565b600073ffffffffffffffffffffffffffffffffffffffff163373ffffffffffffffffffffffffffffffffffffffff161415610fcf57600080fd5b60016000815480929190610fe290611b4d565b91905055506000600360003373ffffffffffffffffffffffffffffffffffffffff1673ffffffffffffffffffffffffffffffffffffffff168152602001908152602001600020905060015481600001819055508381600101908051906020019061104d9291906112b4565b50338160030160006101000a81548173ffffffffffffffffffffffffffffffffffffffff021916908373ffffffffffffffffffffffffffffffffffffffff160217905550828160020190805190602001906110a99291906112b4565b50818160050190805190602001906110c29291906112b4565b50600a816004018190555080600360003373ffffffffffffffffffffffffffffffffffffffff1673ffffffffffffffffffffffffffffffffffffffff16815260200190815260200160002060008201548160000155600182018160010190805461112b90611c65565b61113692919061133a565b50600282018160020190805461114b90611c65565b61115692919061133a565b506003820160009054906101000a900473ffffffffffffffffffffffffffffffffffffffff168160030160006101000a81548173ffffffffffffffffffffffffffffffffffffffff021916908373ffffffffffffffffffffffffffffffffffffffff1602179055506004820154816004015560058201816005019080546111dc90611c65565b6111e792919061133a565b5060068201816006019080546111fe9291906113c7565b509050503360046000600154815260200190815260200160002060006101000a81548173ffffffffffffffffffffffffffffffffffffffff021916908373ffffffffffffffffffffffffffffffffffffffff1602179055506001600560003373ffffffffffffffffffffffffffffffffffffffff1673ffffffffffffffffffffffffffffffffffffffff16815260200190815260200160002060006101000a81548160ff02191690831515021790555050505050565b8280546112c090611c65565b90600052602060002090601f0160209004810192826112e25760008555611329565b82601f106112fb57805160ff1916838001178555611329565b82800160010185558215611329579182015b8281111561132857825182559160200191906001019061130d565b5b5090506113369190611419565b5090565b82805461134690611c65565b90600052602060002090601f01602090048101928261136857600085556113b6565b82601f1061137957805485556113b6565b828001600101855582156113b657600052602060002091601f016020900482015b828111156113b557825482559160010191906001019061139a565b5b5090506113c39190611419565b5090565b8280548282559060005260206000209081019282156114085760005260206000209182015b828111156114075782548255916001019190600101906113ec565b5b5090506114159190611419565b5090565b5b8082111561143257600081600090555060010161141a565b5090565b6000819050919050565b61144981611436565b82525050565b60006020820190506114646000830184611440565b92915050565b6000604051905090565b600080fd5b600080fd5b600073ffffffffffffffffffffffffffffffffffffffff82169050919050565b60006114a98261147e565b9050919050565b6114b98161149e565b81146114c457600080fd5b50565b6000813590506114d6816114b0565b92915050565b6000602082840312156114f2576114f1611474565b5b6000611500848285016114c7565b91505092915050565b60008115159050919050565b61151e81611509565b82525050565b60006020820190506115396000830184611515565b92915050565b600080fd5b600080fd5b6000601f19601f8301169050919050565b7f4e487b7100000000000000000000000000000000000000000000000000000000600052604160045260246000fd5b61159282611549565b810181811067ffffffffffffffff821117156115b1576115b061155a565b5b80604052505050565b60006115c461146a565b90506115d08282611589565b919050565b600067ffffffffffffffff8211156115f0576115ef61155a565b5b6115f982611549565b9050602081019050919050565b82818337600083830152505050565b6000611628611623846115d5565b6115ba565b90508281526020810184848401111561164457611643611544565b5b61164f848285611606565b509392505050565b600082601f83011261166c5761166b61153f565b5b813561167c848260208601611615565b91505092915050565b61168e81611436565b811461169957600080fd5b50565b6000813590506116ab81611685565b92915050565b600080600080608085870312156116cb576116ca611474565b5b600085013567ffffffffffffffff8111156116e9576116e8611479565b5b6116f587828801611657565b945050602085013567ffffffffffffffff81111561171657611715611479565b5b61172287828801611657565b93505060406117338782880161169c565b92505060606117448782880161169c565b91505092959194509250565b60006020828403121561176657611765611474565b5b60006117748482850161169c565b91505092915050565b6000806000806080858703121561179757611796611474565b5b600085013567ffffffffffffffff8111156117b5576117b4611479565b5b6117c187828801611657565b945050602085013567ffffffffffffffff8111156117e2576117e1611479565b5b6117ee87828801611657565b935050604085013567ffffffffffffffff81111561180f5761180e611479565b5b61181b87828801611657565b925050606061182c8782880161169c565b91505092959194509250565b6118418161149e565b82525050565b600060208201905061185c6000830184611838565b92915050565b6000806040838503121561187957611878611474565b5b60006118878582860161169c565b92505060206118988582860161169c565b9150509250929050565b600081519050919050565b600082825260208201905092915050565b60005b838110156118dc5780820151818401526020810190506118c1565b838111156118eb576000848401525b50505050565b60006118fc826118a2565b61190681856118ad565b93506119168185602086016118be565b61191f81611549565b840191505092915050565b600060c08201905061193f6000830189611440565b818103602083015261195181886118f1565b9050818103604083015261196581876118f1565b90506119746060830186611440565b818103608083015261198681856118f1565b905061199560a0830184611440565b979650505050505050565b600060a0820190506119b56000830188611440565b81810360208301526119c781876118f1565b905081810360408301526119db81866118f1565b90506119ea6060830185611440565b6119f76080830184611440565b9695505050505050565b600060c082019050611a166000830189611440565b8181036020830152611a2881886118f1565b90508181036040830152611a3c81876118f1565b9050611a4b6060830186611838565b611a586080830185611440565b81810360a0830152611a6a81846118f1565b9050979650505050505050565b600080600060608486031215611a9057611a8f611474565b5b600084013567ffffffffffffffff811115611aae57611aad611479565b5b611aba86828701611657565b935050602084013567ffffffffffffffff811115611adb57611ada611479565b5b611ae786828701611657565b925050604084013567ffffffffffffffff811115611b0857611b07611479565b5b611b1486828701611657565b9150509250925092565b7f4e487b7100000000000000000000000000000000000000000000000000000000600052601160045260246000fd5b6000611b5882611436565b91507fffffffffffffffffffffffffffffffffffffffffffffffffffffffffffffffff821415611b8b57611b8a611b1e565b5b600182019050919050565b7f6e6f206164647265737300000000000000000000000000000000000000000000600082015250565b6000611bcc600a836118ad565b9150611bd782611b96565b602082019050919050565b60006020820190508181036000830152611bfb81611bbf565b9050919050565b6000611c0d82611436565b9150611c1883611436565b925082821015611c2b57611c2a611b1e565b5b828203905092915050565b7f4e487b7100000000000000000000000000000000000000000000000000000000600052602260045260246000fd5b60006002820490506001821680611c7d57607f821691505b60208210811415611c9157611c90611c36565b5b50919050565b6000611ca282611436565b9150611cad83611436565b9250827fffffffffffffffffffffffffffffffffffffffffffffffffffffffffffffffff03821115611ce257611ce1611b1e565b5b82820190509291505056fea2646970667358221220c111dc3b3489a46edf20eeb812f702b9dbd3b403ee9a475b771fbc7cc304b84464736f6c63430008090033",
  "linkReferences": {},
  "deployedLinkReferences": {}
}