{
  "_format": "hh-sol-artifact-1",
  "contractName": "Cafe",
  "sourceName": "contracts/Cafe.sol",
  "abi": [
    {
      "inputs": [
        {
          "internalType": "string",
          "name": "_name",
          "type": "string"
        },
        {
          "internalType": "string",
          "name": "_details",
          "type": "string"
        },
        {
          "internalType": "uint256",
          "name": "_tokenRequired",
          "type": "uint256"
        },
        {
          "internalType": "uint256",
          "name": "_level",
          "type": "uint256"
        }
      ],
      "name": "addNFT",
      "outputs": [],
      "stateMutability": "nonpayable",
      "type": "function"
    },
    {
      "inputs": [
        {
          "internalType": "string",
          "name": "_name",
          "type": "string"
        },
        {
          "internalType": "string",
          "name": "_productDescription",
          "type": "string"
        },
        {
          "internalType": "string",
          "name": "_productImage",
          "type": "string"
        },
        {
          "internalType": "uint256",
          "name": "_price",
          "type": "uint256"
        }
      ],
      "name": "addProduct",
      "outputs": [],
      "stateMutability": "nonpayable",
      "type": "function"
    },
    {
      "inputs": [
        {
          "internalType": "string",
          "name": "_name",
          "type": "string"
        },
        {
          "internalType": "string",
          "name": "_email",
          "type": "string"
        },
        {
          "internalType": "string",
          "name": "_profileImage",
          "type": "string"
        }
      ],
      "name": "addUserProfile",
      "outputs": [],
      "stateMutability": "nonpayable",
      "type": "function"
    },
    {
      "inputs": [
        {
          "internalType": "uint256",
          "name": "",
          "type": "uint256"
        }
      ],
      "name": "allNFTs",
      "outputs": [
        {
          "internalType": "uint256",
          "name": "nftId",
          "type": "uint256"
        },
        {
          "internalType": "string",
          "name": "name",
          "type": "string"
        },
        {
          "internalType": "string",
          "name": "description",
          "type": "string"
        },
        {
          "internalType": "uint256",
          "name": "tokenRequired",
          "type": "uint256"
        },
        {
          "internalType": "uint256",
          "name": "level",
          "type": "uint256"
        }
      ],
      "stateMutability": "view",
      "type": "function"
    },
    {
      "inputs": [
        {
          "internalType": "uint256",
          "name": "",
          "type": "uint256"
        }
      ],
      "name": "allProduct",
      "outputs": [
        {
          "internalType": "uint256",
          "name": "productId",
          "type": "uint256"
        },
        {
          "internalType": "string",
          "name": "name",
          "type": "string"
        },
        {
          "internalType": "string",
          "name": "productImage",
          "type": "string"
        },
        {
          "internalType": "uint256",
          "name": "price",
          "type": "uint256"
        },
        {
          "internalType": "string",
          "name": "productDescription",
          "type": "string"
        },
        {
          "internalType": "uint256",
          "name": "count",
          "type": "uint256"
        }
      ],
      "stateMutability": "view",
      "type": "function"
    },
    {
      "inputs": [
        {
          "internalType": "address",
          "name": "",
          "type": "address"
        }
      ],
      "name": "allUsers",
      "outputs": [
        {
          "internalType": "uint256",
          "name": "userId",
          "type": "uint256"
        },
        {
          "internalType": "string",
          "name": "name",
          "type": "string"
        },
        {
          "internalType": "string",
          "name": "email",
          "type": "string"
        },
        {
          "internalType": "address",
          "name": "walletAddress",
          "type": "address"
        },
        {
          "internalType": "uint256",
          "name": "pointsBalance",
          "type": "uint256"
        },
        {
          "internalType": "string",
          "name": "profileImage",
          "type": "string"
        }
      ],
      "stateMutability": "view",
      "type": "function"
    },
    {
      "inputs": [
        {
          "internalType": "uint256",
          "name": "_nftId",
          "type": "uint256"
        }
      ],
      "name": "buyNFT",
      "outputs": [],
      "stateMutability": "nonpayable",
      "type": "function"
    },
    {
      "inputs": [
        {
          "internalType": "address",
          "name": "",
          "type": "address"
        }
      ],
      "name": "isProfileSet",
      "outputs": [
        {
          "internalType": "bool",
          "name": "",
          "type": "bool"
        }
      ],
      "stateMutability": "view",
      "type": "function"
    },
    {
      "inputs": [
        {
          "internalType": "uint256",
          "name": "_productId",
          "type": "uint256"
        },
        {
          "internalType": "uint256",
          "name": "_rewards",
          "type": "uint256"
        }
      ],
      "name": "placeOrderUsingMoney",
      "outputs": [],
      "stateMutability": "payable",
      "type": "function"
    }
  ],
  "bytecode": "0x608060405234801561001057600080fd5b50611ab4806100206000396000f3fe6080604052600436106100865760003560e01c8063a6ed5aa111610059578063a6ed5aa114610143578063adad41cd1461015f578063bf162d67146101a1578063edbece37146101e2578063fd3144f91461022457610086565b8063185756ae1461008b5780632fdfb6b7146100c857806351ed8288146100f15780638165fed51461011a575b600080fd5b34801561009757600080fd5b506100b260048036038101906100ad919061126f565b61024d565b6040516100bf91906112b7565b60405180910390f35b3480156100d457600080fd5b506100ef60048036038101906100ea919061144e565b61026d565b005b3480156100fd57600080fd5b50610118600480360381019061011391906114ed565b6102f2565b005b34801561012657600080fd5b50610141600480360381019061013c919061151a565b610476565b005b61015d600480360381019061015891906115d5565b610557565b005b34801561016b57600080fd5b50610186600480360381019061018191906114ed565b6108a2565b604051610198969594939291906116ac565b60405180910390f35b3480156101ad57600080fd5b506101c860048036038101906101c391906114ed565b610a76565b6040516101d9959493929190611722565b60405180910390f35b3480156101ee57600080fd5b506102096004803603810190610204919061126f565b610bbc565b60405161021b96959493929190611792565b60405180910390f35b34801561023057600080fd5b5061024b60048036038101906102469190611808565b610db0565b005b60046020528060005260406000206000915054906101000a900460ff1681565b60008081548092919061027f906118de565b91905055506000600560008054815260200190815260200160002090506000548160000181905550848160010190805190602001906102bf92919061107b565b50838160020190805190602001906102d892919061107b565b508181600401819055508281600301819055505050505050565b600460003373ffffffffffffffffffffffffffffffffffffffff1673ffffffffffffffffffffffffffffffffffffffff16815260200190815260200160002060009054906101000a900460ff1661037e576040517f08c379a000000000000000000000000000000000000000000000000000000000815260040161037590611973565b60405180910390fd5b6000600360003373ffffffffffffffffffffffffffffffffffffffff1673ffffffffffffffffffffffffffffffffffffffff168152602001908152602001600020905060006005600084815260200190815260200160002090508060030154826004015410156103ed57600080fd5b80600301548260040160008282546104059190611993565b9250508190555080600501339080600181540180825580915050600190039060005260206000200160009091909190916101000a81548173ffffffffffffffffffffffffffffffffffffffff021916908373ffffffffffffffffffffffffffffffffffffffff160217905550505050565b60026000815480929190610489906118de565b919050555060006040518060c00160405280600254815260200186815260200184815260200183815260200185815260200160008152509050806006600060025481526020019081526020016000206000820151816000015560208201518160010190805190602001906104fe92919061107b565b50604082015181600201908051906020019061051b92919061107b565b5060608201518160030155608082015181600401908051906020019061054292919061107b565b5060a082015181600501559050505050505050565b600073ffffffffffffffffffffffffffffffffffffffff163373ffffffffffffffffffffffffffffffffffffffff16141561059157600080fd5b6000600660008481526020019081526020016000206040518060c0016040529081600082015481526020016001820180546105cb906119f6565b80601f01602080910402602001604051908101604052809291908181526020018280546105f7906119f6565b80156106445780601f1061061957610100808354040283529160200191610644565b820191906000526020600020905b81548152906001019060200180831161062757829003601f168201915b5050505050815260200160028201805461065d906119f6565b80601f0160208091040260200160405190810160405280929190818152602001828054610689906119f6565b80156106d65780601f106106ab576101008083540402835291602001916106d6565b820191906000526020600020905b8154815290600101906020018083116106b957829003601f168201915b50505050508152602001600382015481526020016004820180546106f9906119f6565b80601f0160208091040260200160405190810160405280929190818152602001828054610725906119f6565b80156107725780601f1061074757610100808354040283529160200191610772565b820191906000526020600020905b81548152906001019060200180831161075557829003601f168201915b505050505081526020016005820154815250509050806060015134101561079857600080fd5b6000732f8fa2250012718cb7f66a0b804ee3f367b4bd1c905060018260a0018181516107c49190611a28565b915081815250506000600360003373ffffffffffffffffffffffffffffffffffffffff1673ffffffffffffffffffffffffffffffffffffffff1681526020019081526020016000209050838160040160008282546108229190611a28565b925050819055508173ffffffffffffffffffffffffffffffffffffffff166108fc349081150290604051600060405180830381858888f1935050505015801561086f573d6000803e3d6000fd5b50806006018590806001815401808255809150506001900390600052602060002001600090919091909150555050505050565b60066020528060005260406000206000915090508060000154908060010180546108cb906119f6565b80601f01602080910402602001604051908101604052809291908181526020018280546108f7906119f6565b80156109445780601f1061091957610100808354040283529160200191610944565b820191906000526020600020905b81548152906001019060200180831161092757829003601f168201915b505050505090806002018054610959906119f6565b80601f0160208091040260200160405190810160405280929190818152602001828054610985906119f6565b80156109d25780601f106109a7576101008083540402835291602001916109d2565b820191906000526020600020905b8154815290600101906020018083116109b557829003601f168201915b5050505050908060030154908060040180546109ed906119f6565b80601f0160208091040260200160405190810160405280929190818152602001828054610a19906119f6565b8015610a665780601f10610a3b57610100808354040283529160200191610a66565b820191906000526020600020905b815481529060010190602001808311610a4957829003601f168201915b5050505050908060050154905086565b6005602052806000526040600020600091509050806000015490806001018054610a9f906119f6565b80601f0160208091040260200160405190810160405280929190818152602001828054610acb906119f6565b8015610b185780601f10610aed57610100808354040283529160200191610b18565b820191906000526020600020905b815481529060010190602001808311610afb57829003601f168201915b505050505090806002018054610b2d906119f6565b80601f0160208091040260200160405190810160405280929190818152602001828054610b59906119f6565b8015610ba65780601f10610b7b57610100808354040283529160200191610ba6565b820191906000526020600020905b815481529060010190602001808311610b8957829003601f168201915b5050505050908060030154908060040154905085565b6003602052806000526040600020600091509050806000015490806001018054610be5906119f6565b80601f0160208091040260200160405190810160405280929190818152602001828054610c11906119f6565b8015610c5e5780601f10610c3357610100808354040283529160200191610c5e565b820191906000526020600020905b815481529060010190602001808311610c4157829003601f168201915b505050505090806002018054610c73906119f6565b80601f0160208091040260200160405190810160405280929190818152602001828054610c9f906119f6565b8015610cec5780601f10610cc157610100808354040283529160200191610cec565b820191906000526020600020905b815481529060010190602001808311610ccf57829003601f168201915b5050505050908060030160009054906101000a900473ffffffffffffffffffffffffffffffffffffffff1690806004015490806005018054610d2d906119f6565b80601f0160208091040260200160405190810160405280929190818152602001828054610d59906119f6565b8015610da65780601f10610d7b57610100808354040283529160200191610da6565b820191906000526020600020905b815481529060010190602001808311610d8957829003601f168201915b5050505050905086565b600073ffffffffffffffffffffffffffffffffffffffff163373ffffffffffffffffffffffffffffffffffffffff161415610dea57600080fd5b60016000815480929190610dfd906118de565b91905055506000600360003373ffffffffffffffffffffffffffffffffffffffff1673ffffffffffffffffffffffffffffffffffffffff1681526020019081526020016000209050600154816000018190555083816001019080519060200190610e6892919061107b565b50338160030160006101000a81548173ffffffffffffffffffffffffffffffffffffffff021916908373ffffffffffffffffffffffffffffffffffffffff16021790555082816002019080519060200190610ec492919061107b565b5081816005019080519060200190610edd92919061107b565b50600a816004018190555080600360003373ffffffffffffffffffffffffffffffffffffffff1673ffffffffffffffffffffffffffffffffffffffff168152602001908152602001600020600082015481600001556001820181600101908054610f46906119f6565b610f51929190611101565b506002820181600201908054610f66906119f6565b610f71929190611101565b506003820160009054906101000a900473ffffffffffffffffffffffffffffffffffffffff168160030160006101000a81548173ffffffffffffffffffffffffffffffffffffffff021916908373ffffffffffffffffffffffffffffffffffffffff160217905550600482015481600401556005820181600501908054610ff7906119f6565b611002929190611101565b50600682018160060190805461101992919061118e565b509050506001600460003373ffffffffffffffffffffffffffffffffffffffff1673ffffffffffffffffffffffffffffffffffffffff16815260200190815260200160002060006101000a81548160ff02191690831515021790555050505050565b828054611087906119f6565b90600052602060002090601f0160209004810192826110a957600085556110f0565b82601f106110c257805160ff19168380011785556110f0565b828001600101855582156110f0579182015b828111156110ef5782518255916020019190600101906110d4565b5b5090506110fd91906111e0565b5090565b82805461110d906119f6565b90600052602060002090601f01602090048101928261112f576000855561117d565b82601f10611140578054855561117d565b8280016001018555821561117d57600052602060002091601f016020900482015b8281111561117c578254825591600101919060010190611161565b5b50905061118a91906111e0565b5090565b8280548282559060005260206000209081019282156111cf5760005260206000209182015b828111156111ce5782548255916001019190600101906111b3565b5b5090506111dc91906111e0565b5090565b5b808211156111f95760008160009055506001016111e1565b5090565b6000604051905090565b600080fd5b600080fd5b600073ffffffffffffffffffffffffffffffffffffffff82169050919050565b600061123c82611211565b9050919050565b61124c81611231565b811461125757600080fd5b50565b60008135905061126981611243565b92915050565b60006020828403121561128557611284611207565b5b60006112938482850161125a565b91505092915050565b60008115159050919050565b6112b18161129c565b82525050565b60006020820190506112cc60008301846112a8565b92915050565b600080fd5b600080fd5b6000601f19601f8301169050919050565b7f4e487b7100000000000000000000000000000000000000000000000000000000600052604160045260246000fd5b611325826112dc565b810181811067ffffffffffffffff82111715611344576113436112ed565b5b80604052505050565b60006113576111fd565b9050611363828261131c565b919050565b600067ffffffffffffffff821115611383576113826112ed565b5b61138c826112dc565b9050602081019050919050565b82818337600083830152505050565b60006113bb6113b684611368565b61134d565b9050828152602081018484840111156113d7576113d66112d7565b5b6113e2848285611399565b509392505050565b600082601f8301126113ff576113fe6112d2565b5b813561140f8482602086016113a8565b91505092915050565b6000819050919050565b61142b81611418565b811461143657600080fd5b50565b60008135905061144881611422565b92915050565b6000806000806080858703121561146857611467611207565b5b600085013567ffffffffffffffff8111156114865761148561120c565b5b611492878288016113ea565b945050602085013567ffffffffffffffff8111156114b3576114b261120c565b5b6114bf878288016113ea565b93505060406114d087828801611439565b92505060606114e187828801611439565b91505092959194509250565b60006020828403121561150357611502611207565b5b600061151184828501611439565b91505092915050565b6000806000806080858703121561153457611533611207565b5b600085013567ffffffffffffffff8111156115525761155161120c565b5b61155e878288016113ea565b945050602085013567ffffffffffffffff81111561157f5761157e61120c565b5b61158b878288016113ea565b935050604085013567ffffffffffffffff8111156115ac576115ab61120c565b5b6115b8878288016113ea565b92505060606115c987828801611439565b91505092959194509250565b600080604083850312156115ec576115eb611207565b5b60006115fa85828601611439565b925050602061160b85828601611439565b9150509250929050565b61161e81611418565b82525050565b600081519050919050565b600082825260208201905092915050565b60005b8381101561165e578082015181840152602081019050611643565b8381111561166d576000848401525b50505050565b600061167e82611624565b611688818561162f565b9350611698818560208601611640565b6116a1816112dc565b840191505092915050565b600060c0820190506116c16000830189611615565b81810360208301526116d38188611673565b905081810360408301526116e78187611673565b90506116f66060830186611615565b81810360808301526117088185611673565b905061171760a0830184611615565b979650505050505050565b600060a0820190506117376000830188611615565b81810360208301526117498187611673565b9050818103604083015261175d8186611673565b905061176c6060830185611615565b6117796080830184611615565b9695505050505050565b61178c81611231565b82525050565b600060c0820190506117a76000830189611615565b81810360208301526117b98188611673565b905081810360408301526117cd8187611673565b90506117dc6060830186611783565b6117e96080830185611615565b81810360a08301526117fb8184611673565b9050979650505050505050565b60008060006060848603121561182157611820611207565b5b600084013567ffffffffffffffff81111561183f5761183e61120c565b5b61184b868287016113ea565b935050602084013567ffffffffffffffff81111561186c5761186b61120c565b5b611878868287016113ea565b925050604084013567ffffffffffffffff8111156118995761189861120c565b5b6118a5868287016113ea565b9150509250925092565b7f4e487b7100000000000000000000000000000000000000000000000000000000600052601160045260246000fd5b60006118e982611418565b91507fffffffffffffffffffffffffffffffffffffffffffffffffffffffffffffffff82141561191c5761191b6118af565b5b600182019050919050565b7f6e6f206164647265737300000000000000000000000000000000000000000000600082015250565b600061195d600a8361162f565b915061196882611927565b602082019050919050565b6000602082019050818103600083015261198c81611950565b9050919050565b600061199e82611418565b91506119a983611418565b9250828210156119bc576119bb6118af565b5b828203905092915050565b7f4e487b7100000000000000000000000000000000000000000000000000000000600052602260045260246000fd5b60006002820490506001821680611a0e57607f821691505b60208210811415611a2257611a216119c7565b5b50919050565b6000611a3382611418565b9150611a3e83611418565b9250827fffffffffffffffffffffffffffffffffffffffffffffffffffffffffffffffff03821115611a7357611a726118af565b5b82820190509291505056fea264697066735822122033d472fae2b51006c34d4a88d8100d7e3b5c18c5cf90bf89788221014aa57b8b64736f6c63430008090033",
  "linkReferences": {},
  "deployedLinkReferences": {}
}