{
  "_format": "hh-sol-artifact-1",
  "contractName": "Cafe",
  "sourceName": "contracts/Cafe.sol",
  "abi": [
    {
      "inputs": [
        {
          "internalType": "uint256",
          "name": "_cups",
          "type": "uint256"
        }
      ],
      "name": "addCups",
      "outputs": [],
      "stateMutability": "payable",
      "type": "function"
    },
    {
      "inputs": [
        {
          "internalType": "string",
          "name": "_name",
          "type": "string"
        },
        {
          "internalType": "string",
          "name": "_details",
          "type": "string"
        },
        {
          "internalType": "uint256",
          "name": "_tokenRequired",
          "type": "uint256"
        },
        {
          "internalType": "uint256",
          "name": "_level",
          "type": "uint256"
        }
      ],
      "name": "addNFT",
      "outputs": [],
      "stateMutability": "nonpayable",
      "type": "function"
    },
    {
      "inputs": [
        {
          "internalType": "string",
          "name": "_name",
          "type": "string"
        },
        {
          "internalType": "string",
          "name": "_productDescription",
          "type": "string"
        },
        {
          "internalType": "string",
          "name": "_productImage",
          "type": "string"
        },
        {
          "internalType": "uint256",
          "name": "_price",
          "type": "uint256"
        }
      ],
      "name": "addProduct",
      "outputs": [],
      "stateMutability": "nonpayable",
      "type": "function"
    },
    {
      "inputs": [
        {
          "internalType": "string",
          "name": "_name",
          "type": "string"
        },
        {
          "internalType": "string",
          "name": "_email",
          "type": "string"
        },
        {
          "internalType": "string",
          "name": "_profileImage",
          "type": "string"
        }
      ],
      "name": "addUserProfile",
      "outputs": [],
      "stateMutability": "nonpayable",
      "type": "function"
    },
    {
      "inputs": [
        {
          "internalType": "uint256",
          "name": "",
          "type": "uint256"
        }
      ],
      "name": "allNFTs",
      "outputs": [
        {
          "internalType": "uint256",
          "name": "nftId",
          "type": "uint256"
        },
        {
          "internalType": "string",
          "name": "name",
          "type": "string"
        },
        {
          "internalType": "string",
          "name": "description",
          "type": "string"
        },
        {
          "internalType": "uint256",
          "name": "tokenRequired",
          "type": "uint256"
        },
        {
          "internalType": "uint256",
          "name": "level",
          "type": "uint256"
        },
        {
          "internalType": "string",
          "name": "owners",
          "type": "string"
        }
      ],
      "stateMutability": "view",
      "type": "function"
    },
    {
      "inputs": [
        {
          "internalType": "uint256",
          "name": "",
          "type": "uint256"
        }
      ],
      "name": "allProduct",
      "outputs": [
        {
          "internalType": "uint256",
          "name": "productId",
          "type": "uint256"
        },
        {
          "internalType": "string",
          "name": "name",
          "type": "string"
        },
        {
          "internalType": "string",
          "name": "productImage",
          "type": "string"
        },
        {
          "internalType": "uint256",
          "name": "price",
          "type": "uint256"
        },
        {
          "internalType": "string",
          "name": "productDescription",
          "type": "string"
        },
        {
          "internalType": "uint256",
          "name": "count",
          "type": "uint256"
        }
      ],
      "stateMutability": "view",
      "type": "function"
    },
    {
      "inputs": [
        {
          "internalType": "address",
          "name": "",
          "type": "address"
        }
      ],
      "name": "allUsers",
      "outputs": [
        {
          "internalType": "uint256",
          "name": "userId",
          "type": "uint256"
        },
        {
          "internalType": "string",
          "name": "name",
          "type": "string"
        },
        {
          "internalType": "string",
          "name": "email",
          "type": "string"
        },
        {
          "internalType": "address",
          "name": "walletAddress",
          "type": "address"
        },
        {
          "internalType": "uint256",
          "name": "pointsBalance",
          "type": "uint256"
        },
        {
          "internalType": "string",
          "name": "profileImage",
          "type": "string"
        },
        {
          "internalType": "uint256",
          "name": "cups",
          "type": "uint256"
        }
      ],
      "stateMutability": "view",
      "type": "function"
    },
    {
      "inputs": [
        {
          "internalType": "uint256",
          "name": "",
          "type": "uint256"
        }
      ],
      "name": "allUsersAddress",
      "outputs": [
        {
          "internalType": "address",
          "name": "",
          "type": "address"
        }
      ],
      "stateMutability": "view",
      "type": "function"
    },
    {
      "inputs": [
        {
          "internalType": "uint256",
          "name": "_nftId",
          "type": "uint256"
        },
        {
          "internalType": "string",
          "name": "_account",
          "type": "string"
        }
      ],
      "name": "buyNFT",
      "outputs": [],
      "stateMutability": "nonpayable",
      "type": "function"
    },
    {
      "inputs": [
        {
          "internalType": "uint256",
          "name": "_cups",
          "type": "uint256"
        }
      ],
      "name": "deduceCups",
      "outputs": [],
      "stateMutability": "nonpayable",
      "type": "function"
    },
    {
      "inputs": [
        {
          "internalType": "address",
          "name": "",
          "type": "address"
        }
      ],
      "name": "isProfileSet",
      "outputs": [
        {
          "internalType": "bool",
          "name": "",
          "type": "bool"
        }
      ],
      "stateMutability": "view",
      "type": "function"
    },
    {
      "inputs": [],
      "name": "nftCounter",
      "outputs": [
        {
          "internalType": "uint256",
          "name": "",
          "type": "uint256"
        }
      ],
      "stateMutability": "view",
      "type": "function"
    },
    {
      "inputs": [
        {
          "internalType": "uint256",
          "name": "_productId",
          "type": "uint256"
        },
        {
          "internalType": "uint256",
          "name": "_rewards",
          "type": "uint256"
        }
      ],
      "name": "placeOrderUsingMoney",
      "outputs": [],
      "stateMutability": "payable",
      "type": "function"
    },
    {
      "inputs": [],
      "name": "productCount",
      "outputs": [
        {
          "internalType": "uint256",
          "name": "",
          "type": "uint256"
        }
      ],
      "stateMutability": "view",
      "type": "function"
    },
    {
      "inputs": [
        {
          "internalType": "uint256",
          "name": "_points",
          "type": "uint256"
        }
      ],
      "name": "updateRewards",
      "outputs": [],
      "stateMutability": "nonpayable",
      "type": "function"
    },
    {
      "inputs": [],
      "name": "userCount",
      "outputs": [
        {
          "internalType": "uint256",
          "name": "",
          "type": "uint256"
        }
      ],
      "stateMutability": "view",
      "type": "function"
    }
  ],
  "bytecode": "0x608060405234801561001057600080fd5b5061226d806100206000396000f3fe6080604052600436106100f35760003560e01c8063a6ed5aa11161008a578063e0f6ef8711610059578063e0f6ef8714610326578063e574609e14610351578063edbece371461037c578063fd3144f9146103bf576100f3565b8063a6ed5aa11461025d578063adad41cd14610279578063b1e95e94146102bb578063bf162d67146102e4576100f3565b80636c55bacf116100c65780636c55bacf146101b25780637122f1cf146101db5780638165fed5146101f75780639f1953c314610220576100f3565b806307973ccf146100f85780630854748a14610123578063185756ae1461014c5780632fdfb6b714610189575b600080fd5b34801561010457600080fd5b5061010d6103e8565b60405161011a919061191a565b60405180910390f35b34801561012f57600080fd5b5061014a60048036038101906101459190611abb565b6103ee565b005b34801561015857600080fd5b50610173600480360381019061016e9190611b75565b610527565b6040516101809190611bbd565b60405180910390f35b34801561019557600080fd5b506101b060048036038101906101ab9190611bd8565b610547565b005b3480156101be57600080fd5b506101d960048036038101906101d49190611c77565b6105cc565b005b6101f560048036038101906101f09190611c77565b6107a4565b005b34801561020357600080fd5b5061021e60048036038101906102199190611ca4565b6109dd565b005b34801561022c57600080fd5b5061024760048036038101906102429190611c77565b610abe565b6040516102549190611d6e565b60405180910390f35b61027760048036038101906102729190611d89565b610af1565b005b34801561028557600080fd5b506102a0600480360381019061029b9190611c77565b610e3c565b6040516102b296959493929190611e51565b60405180910390f35b3480156102c757600080fd5b506102e260048036038101906102dd9190611c77565b611010565b005b3480156102f057600080fd5b5061030b60048036038101906103069190611c77565b611072565b60405161031d96959493929190611ec7565b60405180910390f35b34801561033257600080fd5b5061033b611246565b604051610348919061191a565b60405180910390f35b34801561035d57600080fd5b5061036661124c565b604051610373919061191a565b60405180910390f35b34801561038857600080fd5b506103a3600480360381019061039e9190611b75565b611252565b6040516103b69796959493929190611f3d565b60405180910390f35b3480156103cb57600080fd5b506103e660048036038101906103e19190611fc1565b61144c565b005b60015481565b600560003373ffffffffffffffffffffffffffffffffffffffff1673ffffffffffffffffffffffffffffffffffffffff16815260200190815260200160002060009054906101000a900460ff1661047a576040517f08c379a0000000000000000000000000000000000000000000000000000000008152600401610471906120b4565b60405180910390fd5b6000600360003373ffffffffffffffffffffffffffffffffffffffff1673ffffffffffffffffffffffffffffffffffffffff16815260200190815260200160002090506000600660008581526020019081526020016000209050828160050190805190602001906104ec92919061177f565b5080600301548260040154101561050257600080fd5b806003015482600401600082825461051a9190612103565b9250508190555050505050565b60056020528060005260406000206000915054906101000a900460ff1681565b60008081548092919061055990612137565b919050555060006006600080548152602001908152602001600020905060005481600001819055508481600101908051906020019061059992919061177f565b50838160020190805190602001906105b292919061177f565b508181600401819055508281600301819055505050505050565b600073ffffffffffffffffffffffffffffffffffffffff163373ffffffffffffffffffffffffffffffffffffffff16141561060657600080fd5b6000600360003373ffffffffffffffffffffffffffffffffffffffff1673ffffffffffffffffffffffffffffffffffffffff16815260200190815260200160002090508181600701546106599190612103565b816007018190555080600360003373ffffffffffffffffffffffffffffffffffffffff1673ffffffffffffffffffffffffffffffffffffffff1681526020019081526020016000206000820154816000015560018201816001019080546106bf906121af565b6106ca929190611805565b5060028201816002019080546106df906121af565b6106ea929190611805565b506003820160009054906101000a900473ffffffffffffffffffffffffffffffffffffffff168160030160006101000a81548173ffffffffffffffffffffffffffffffffffffffff021916908373ffffffffffffffffffffffffffffffffffffffff160217905550600482015481600401556005820181600501908054610770906121af565b61077b929190611805565b506006820181600601908054610792929190611892565b50600782015481600701559050505050565b600073ffffffffffffffffffffffffffffffffffffffff163373ffffffffffffffffffffffffffffffffffffffff1614156107de57600080fd5b6000732f8fa2250012718cb7f66a0b804ee3f367b4bd1c90508073ffffffffffffffffffffffffffffffffffffffff166108fc349081150290604051600060405180830381858888f1935050505015801561083d573d6000803e3d6000fd5b506000600360003373ffffffffffffffffffffffffffffffffffffffff1673ffffffffffffffffffffffffffffffffffffffff168152602001908152602001600020905082816007015461089191906121e1565b816007018190555080600360003373ffffffffffffffffffffffffffffffffffffffff1673ffffffffffffffffffffffffffffffffffffffff1681526020019081526020016000206000820154816000015560018201816001019080546108f7906121af565b610902929190611805565b506002820181600201908054610917906121af565b610922929190611805565b506003820160009054906101000a900473ffffffffffffffffffffffffffffffffffffffff168160030160006101000a81548173ffffffffffffffffffffffffffffffffffffffff021916908373ffffffffffffffffffffffffffffffffffffffff1602179055506004820154816004015560058201816005019080546109a8906121af565b6109b3929190611805565b5060068201816006019080546109ca929190611892565b5060078201548160070155905050505050565b600260008154809291906109f090612137565b919050555060006040518060c0016040528060025481526020018681526020018481526020018381526020018581526020016000815250905080600760006002548152602001908152602001600020600082015181600001556020820151816001019080519060200190610a6592919061177f565b506040820151816002019080519060200190610a8292919061177f565b50606082015181600301556080820151816004019080519060200190610aa992919061177f565b5060a082015181600501559050505050505050565b60046020528060005260406000206000915054906101000a900473ffffffffffffffffffffffffffffffffffffffff1681565b600073ffffffffffffffffffffffffffffffffffffffff163373ffffffffffffffffffffffffffffffffffffffff161415610b2b57600080fd5b6000600760008481526020019081526020016000206040518060c001604052908160008201548152602001600182018054610b65906121af565b80601f0160208091040260200160405190810160405280929190818152602001828054610b91906121af565b8015610bde5780601f10610bb357610100808354040283529160200191610bde565b820191906000526020600020905b815481529060010190602001808311610bc157829003601f168201915b50505050508152602001600282018054610bf7906121af565b80601f0160208091040260200160405190810160405280929190818152602001828054610c23906121af565b8015610c705780601f10610c4557610100808354040283529160200191610c70565b820191906000526020600020905b815481529060010190602001808311610c5357829003601f168201915b5050505050815260200160038201548152602001600482018054610c93906121af565b80601f0160208091040260200160405190810160405280929190818152602001828054610cbf906121af565b8015610d0c5780601f10610ce157610100808354040283529160200191610d0c565b820191906000526020600020905b815481529060010190602001808311610cef57829003601f168201915b5050505050815260200160058201548152505090508060600151341015610d3257600080fd5b6000732f8fa2250012718cb7f66a0b804ee3f367b4bd1c905060018260a001818151610d5e91906121e1565b915081815250506000600360003373ffffffffffffffffffffffffffffffffffffffff1673ffffffffffffffffffffffffffffffffffffffff168152602001908152602001600020905083816004016000828254610dbc91906121e1565b925050819055508173ffffffffffffffffffffffffffffffffffffffff166108fc349081150290604051600060405180830381858888f19350505050158015610e09573d6000803e3d6000fd5b50806006018590806001815401808255809150506001900390600052602060002001600090919091909150555050505050565b6007602052806000526040600020600091509050806000015490806001018054610e65906121af565b80601f0160208091040260200160405190810160405280929190818152602001828054610e91906121af565b8015610ede5780601f10610eb357610100808354040283529160200191610ede565b820191906000526020600020905b815481529060010190602001808311610ec157829003601f168201915b505050505090806002018054610ef3906121af565b80601f0160208091040260200160405190810160405280929190818152602001828054610f1f906121af565b8015610f6c5780601f10610f4157610100808354040283529160200191610f6c565b820191906000526020600020905b815481529060010190602001808311610f4f57829003601f168201915b505050505090806003015490806004018054610f87906121af565b80601f0160208091040260200160405190810160405280929190818152602001828054610fb3906121af565b80156110005780601f10610fd557610100808354040283529160200191611000565b820191906000526020600020905b815481529060010190602001808311610fe357829003601f168201915b5050505050908060050154905086565b6000600360003373ffffffffffffffffffffffffffffffffffffffff1673ffffffffffffffffffffffffffffffffffffffff16815260200190815260200160002090508181600401600082825461106791906121e1565b925050819055505050565b600660205280600052604060002060009150905080600001549080600101805461109b906121af565b80601f01602080910402602001604051908101604052809291908181526020018280546110c7906121af565b80156111145780601f106110e957610100808354040283529160200191611114565b820191906000526020600020905b8154815290600101906020018083116110f757829003601f168201915b505050505090806002018054611129906121af565b80601f0160208091040260200160405190810160405280929190818152602001828054611155906121af565b80156111a25780601f10611177576101008083540402835291602001916111a2565b820191906000526020600020905b81548152906001019060200180831161118557829003601f168201915b5050505050908060030154908060040154908060050180546111c3906121af565b80601f01602080910402602001604051908101604052809291908181526020018280546111ef906121af565b801561123c5780601f106112115761010080835404028352916020019161123c565b820191906000526020600020905b81548152906001019060200180831161121f57829003601f168201915b5050505050905086565b60025481565b60005481565b600360205280600052604060002060009150905080600001549080600101805461127b906121af565b80601f01602080910402602001604051908101604052809291908181526020018280546112a7906121af565b80156112f45780601f106112c9576101008083540402835291602001916112f4565b820191906000526020600020905b8154815290600101906020018083116112d757829003601f168201915b505050505090806002018054611309906121af565b80601f0160208091040260200160405190810160405280929190818152602001828054611335906121af565b80156113825780601f1061135757610100808354040283529160200191611382565b820191906000526020600020905b81548152906001019060200180831161136557829003601f168201915b5050505050908060030160009054906101000a900473ffffffffffffffffffffffffffffffffffffffff16908060040154908060050180546113c3906121af565b80601f01602080910402602001604051908101604052809291908181526020018280546113ef906121af565b801561143c5780601f106114115761010080835404028352916020019161143c565b820191906000526020600020905b81548152906001019060200180831161141f57829003601f168201915b5050505050908060070154905087565b600073ffffffffffffffffffffffffffffffffffffffff163373ffffffffffffffffffffffffffffffffffffffff16141561148657600080fd5b6001600081548092919061149990612137565b91905055506000600360003373ffffffffffffffffffffffffffffffffffffffff1673ffffffffffffffffffffffffffffffffffffffff168152602001908152602001600020905060015481600001819055508381600101908051906020019061150492919061177f565b50338160030160006101000a81548173ffffffffffffffffffffffffffffffffffffffff021916908373ffffffffffffffffffffffffffffffffffffffff1602179055508281600201908051906020019061156092919061177f565b508181600501908051906020019061157992919061177f565b50600a81600401819055506000816007018190555080600360003373ffffffffffffffffffffffffffffffffffffffff1673ffffffffffffffffffffffffffffffffffffffff1681526020019081526020016000206000820154816000015560018201816001019080546115ec906121af565b6115f7929190611805565b50600282018160020190805461160c906121af565b611617929190611805565b506003820160009054906101000a900473ffffffffffffffffffffffffffffffffffffffff168160030160006101000a81548173ffffffffffffffffffffffffffffffffffffffff021916908373ffffffffffffffffffffffffffffffffffffffff16021790555060048201548160040155600582018160050190805461169d906121af565b6116a8929190611805565b5060068201816006019080546116bf929190611892565b50600782015481600701559050503360046000600154815260200190815260200160002060006101000a81548173ffffffffffffffffffffffffffffffffffffffff021916908373ffffffffffffffffffffffffffffffffffffffff1602179055506001600560003373ffffffffffffffffffffffffffffffffffffffff1673ffffffffffffffffffffffffffffffffffffffff16815260200190815260200160002060006101000a81548160ff02191690831515021790555050505050565b82805461178b906121af565b90600052602060002090601f0160209004810192826117ad57600085556117f4565b82601f106117c657805160ff19168380011785556117f4565b828001600101855582156117f4579182015b828111156117f35782518255916020019190600101906117d8565b5b50905061180191906118e4565b5090565b828054611811906121af565b90600052602060002090601f0160209004810192826118335760008555611881565b82601f106118445780548555611881565b8280016001018555821561188157600052602060002091601f016020900482015b82811115611880578254825591600101919060010190611865565b5b50905061188e91906118e4565b5090565b8280548282559060005260206000209081019282156118d35760005260206000209182015b828111156118d25782548255916001019190600101906118b7565b5b5090506118e091906118e4565b5090565b5b808211156118fd5760008160009055506001016118e5565b5090565b6000819050919050565b61191481611901565b82525050565b600060208201905061192f600083018461190b565b92915050565b6000604051905090565b600080fd5b600080fd5b61195281611901565b811461195d57600080fd5b50565b60008135905061196f81611949565b92915050565b600080fd5b600080fd5b6000601f19601f8301169050919050565b7f4e487b7100000000000000000000000000000000000000000000000000000000600052604160045260246000fd5b6119c88261197f565b810181811067ffffffffffffffff821117156119e7576119e6611990565b5b80604052505050565b60006119fa611935565b9050611a0682826119bf565b919050565b600067ffffffffffffffff821115611a2657611a25611990565b5b611a2f8261197f565b9050602081019050919050565b82818337600083830152505050565b6000611a5e611a5984611a0b565b6119f0565b905082815260208101848484011115611a7a57611a7961197a565b5b611a85848285611a3c565b509392505050565b600082601f830112611aa257611aa1611975565b5b8135611ab2848260208601611a4b565b91505092915050565b60008060408385031215611ad257611ad161193f565b5b6000611ae085828601611960565b925050602083013567ffffffffffffffff811115611b0157611b00611944565b5b611b0d85828601611a8d565b9150509250929050565b600073ffffffffffffffffffffffffffffffffffffffff82169050919050565b6000611b4282611b17565b9050919050565b611b5281611b37565b8114611b5d57600080fd5b50565b600081359050611b6f81611b49565b92915050565b600060208284031215611b8b57611b8a61193f565b5b6000611b9984828501611b60565b91505092915050565b60008115159050919050565b611bb781611ba2565b82525050565b6000602082019050611bd26000830184611bae565b92915050565b60008060008060808587031215611bf257611bf161193f565b5b600085013567ffffffffffffffff811115611c1057611c0f611944565b5b611c1c87828801611a8d565b945050602085013567ffffffffffffffff811115611c3d57611c3c611944565b5b611c4987828801611a8d565b9350506040611c5a87828801611960565b9250506060611c6b87828801611960565b91505092959194509250565b600060208284031215611c8d57611c8c61193f565b5b6000611c9b84828501611960565b91505092915050565b60008060008060808587031215611cbe57611cbd61193f565b5b600085013567ffffffffffffffff811115611cdc57611cdb611944565b5b611ce887828801611a8d565b945050602085013567ffffffffffffffff811115611d0957611d08611944565b5b611d1587828801611a8d565b935050604085013567ffffffffffffffff811115611d3657611d35611944565b5b611d4287828801611a8d565b9250506060611d5387828801611960565b91505092959194509250565b611d6881611b37565b82525050565b6000602082019050611d836000830184611d5f565b92915050565b60008060408385031215611da057611d9f61193f565b5b6000611dae85828601611960565b9250506020611dbf85828601611960565b9150509250929050565b600081519050919050565b600082825260208201905092915050565b60005b83811015611e03578082015181840152602081019050611de8565b83811115611e12576000848401525b50505050565b6000611e2382611dc9565b611e2d8185611dd4565b9350611e3d818560208601611de5565b611e468161197f565b840191505092915050565b600060c082019050611e66600083018961190b565b8181036020830152611e788188611e18565b90508181036040830152611e8c8187611e18565b9050611e9b606083018661190b565b8181036080830152611ead8185611e18565b9050611ebc60a083018461190b565b979650505050505050565b600060c082019050611edc600083018961190b565b8181036020830152611eee8188611e18565b90508181036040830152611f028187611e18565b9050611f11606083018661190b565b611f1e608083018561190b565b81810360a0830152611f308184611e18565b9050979650505050505050565b600060e082019050611f52600083018a61190b565b8181036020830152611f648189611e18565b90508181036040830152611f788188611e18565b9050611f876060830187611d5f565b611f94608083018661190b565b81810360a0830152611fa68185611e18565b9050611fb560c083018461190b565b98975050505050505050565b600080600060608486031215611fda57611fd961193f565b5b600084013567ffffffffffffffff811115611ff857611ff7611944565b5b61200486828701611a8d565b935050602084013567ffffffffffffffff81111561202557612024611944565b5b61203186828701611a8d565b925050604084013567ffffffffffffffff81111561205257612051611944565b5b61205e86828701611a8d565b9150509250925092565b7f6e6f206164647265737300000000000000000000000000000000000000000000600082015250565b600061209e600a83611dd4565b91506120a982612068565b602082019050919050565b600060208201905081810360008301526120cd81612091565b9050919050565b7f4e487b7100000000000000000000000000000000000000000000000000000000600052601160045260246000fd5b600061210e82611901565b915061211983611901565b92508282101561212c5761212b6120d4565b5b828203905092915050565b600061214282611901565b91507fffffffffffffffffffffffffffffffffffffffffffffffffffffffffffffffff821415612175576121746120d4565b5b600182019050919050565b7f4e487b7100000000000000000000000000000000000000000000000000000000600052602260045260246000fd5b600060028204905060018216806121c757607f821691505b602082108114156121db576121da612180565b5b50919050565b60006121ec82611901565b91506121f783611901565b9250827fffffffffffffffffffffffffffffffffffffffffffffffffffffffffffffffff0382111561222c5761222b6120d4565b5b82820190509291505056fea26469706673582212207de7a3c2e60da24fd1cb882036e7397a1cc0d3b7e1d0d117c254cdd3f28d03e864736f6c63430008090033",
  "linkReferences": {},
  "deployedLinkReferences": {}
}