{
  "_format": "hh-sol-artifact-1",
  "contractName": "Cafe",
  "sourceName": "contracts/Cafe.sol",
  "abi": [
    {
      "inputs": [
        {
          "internalType": "uint256",
          "name": "_cups",
          "type": "uint256"
        }
      ],
      "name": "addCups",
      "outputs": [],
      "stateMutability": "payable",
      "type": "function"
    },
    {
      "inputs": [
        {
          "internalType": "string",
          "name": "_name",
          "type": "string"
        },
        {
          "internalType": "string",
          "name": "_details",
          "type": "string"
        },
        {
          "internalType": "uint256",
          "name": "_tokenRequired",
          "type": "uint256"
        },
        {
          "internalType": "uint256",
          "name": "_level",
          "type": "uint256"
        }
      ],
      "name": "addNFT",
      "outputs": [],
      "stateMutability": "nonpayable",
      "type": "function"
    },
    {
      "inputs": [
        {
          "internalType": "string",
          "name": "_name",
          "type": "string"
        },
        {
          "internalType": "string",
          "name": "_productDescription",
          "type": "string"
        },
        {
          "internalType": "string",
          "name": "_productImage",
          "type": "string"
        },
        {
          "internalType": "uint256",
          "name": "_price",
          "type": "uint256"
        }
      ],
      "name": "addProduct",
      "outputs": [],
      "stateMutability": "nonpayable",
      "type": "function"
    },
    {
      "inputs": [
        {
          "internalType": "string",
          "name": "_name",
          "type": "string"
        },
        {
          "internalType": "string",
          "name": "_email",
          "type": "string"
        },
        {
          "internalType": "string",
          "name": "_profileImage",
          "type": "string"
        }
      ],
      "name": "addUserProfile",
      "outputs": [],
      "stateMutability": "nonpayable",
      "type": "function"
    },
    {
      "inputs": [
        {
          "internalType": "uint256",
          "name": "",
          "type": "uint256"
        }
      ],
      "name": "allNFTs",
      "outputs": [
        {
          "internalType": "uint256",
          "name": "nftId",
          "type": "uint256"
        },
        {
          "internalType": "string",
          "name": "name",
          "type": "string"
        },
        {
          "internalType": "string",
          "name": "description",
          "type": "string"
        },
        {
          "internalType": "uint256",
          "name": "tokenRequired",
          "type": "uint256"
        },
        {
          "internalType": "uint256",
          "name": "level",
          "type": "uint256"
        }
      ],
      "stateMutability": "view",
      "type": "function"
    },
    {
      "inputs": [
        {
          "internalType": "uint256",
          "name": "",
          "type": "uint256"
        }
      ],
      "name": "allProduct",
      "outputs": [
        {
          "internalType": "uint256",
          "name": "productId",
          "type": "uint256"
        },
        {
          "internalType": "string",
          "name": "name",
          "type": "string"
        },
        {
          "internalType": "string",
          "name": "productImage",
          "type": "string"
        },
        {
          "internalType": "uint256",
          "name": "price",
          "type": "uint256"
        },
        {
          "internalType": "string",
          "name": "productDescription",
          "type": "string"
        },
        {
          "internalType": "uint256",
          "name": "count",
          "type": "uint256"
        }
      ],
      "stateMutability": "view",
      "type": "function"
    },
    {
      "inputs": [
        {
          "internalType": "address",
          "name": "",
          "type": "address"
        }
      ],
      "name": "allUsers",
      "outputs": [
        {
          "internalType": "uint256",
          "name": "userId",
          "type": "uint256"
        },
        {
          "internalType": "string",
          "name": "name",
          "type": "string"
        },
        {
          "internalType": "string",
          "name": "email",
          "type": "string"
        },
        {
          "internalType": "address",
          "name": "walletAddress",
          "type": "address"
        },
        {
          "internalType": "uint256",
          "name": "pointsBalance",
          "type": "uint256"
        },
        {
          "internalType": "string",
          "name": "profileImage",
          "type": "string"
        },
        {
          "internalType": "uint256",
          "name": "cups",
          "type": "uint256"
        }
      ],
      "stateMutability": "view",
      "type": "function"
    },
    {
      "inputs": [
        {
          "internalType": "uint256",
          "name": "",
          "type": "uint256"
        }
      ],
      "name": "allUsersAddress",
      "outputs": [
        {
          "internalType": "address",
          "name": "",
          "type": "address"
        }
      ],
      "stateMutability": "view",
      "type": "function"
    },
    {
      "inputs": [
        {
          "internalType": "uint256",
          "name": "_nftId",
          "type": "uint256"
        }
      ],
      "name": "buyNFT",
      "outputs": [],
      "stateMutability": "nonpayable",
      "type": "function"
    },
    {
      "inputs": [
        {
          "internalType": "uint256",
          "name": "_cups",
          "type": "uint256"
        }
      ],
      "name": "deduceCups",
      "outputs": [],
      "stateMutability": "nonpayable",
      "type": "function"
    },
    {
      "inputs": [
        {
          "internalType": "address",
          "name": "",
          "type": "address"
        }
      ],
      "name": "isProfileSet",
      "outputs": [
        {
          "internalType": "bool",
          "name": "",
          "type": "bool"
        }
      ],
      "stateMutability": "view",
      "type": "function"
    },
    {
      "inputs": [],
      "name": "nftCounter",
      "outputs": [
        {
          "internalType": "uint256",
          "name": "",
          "type": "uint256"
        }
      ],
      "stateMutability": "view",
      "type": "function"
    },
    {
      "inputs": [
        {
          "internalType": "uint256",
          "name": "_productId",
          "type": "uint256"
        },
        {
          "internalType": "uint256",
          "name": "_rewards",
          "type": "uint256"
        }
      ],
      "name": "placeOrderUsingMoney",
      "outputs": [],
      "stateMutability": "payable",
      "type": "function"
    },
    {
      "inputs": [],
      "name": "productCount",
      "outputs": [
        {
          "internalType": "uint256",
          "name": "",
          "type": "uint256"
        }
      ],
      "stateMutability": "view",
      "type": "function"
    },
    {
      "inputs": [
        {
          "internalType": "uint256",
          "name": "_points",
          "type": "uint256"
        }
      ],
      "name": "updateRewards",
      "outputs": [],
      "stateMutability": "nonpayable",
      "type": "function"
    },
    {
      "inputs": [],
      "name": "userCount",
      "outputs": [
        {
          "internalType": "uint256",
          "name": "",
          "type": "uint256"
        }
      ],
      "stateMutability": "view",
      "type": "function"
    }
  ],
  "bytecode": "0x608060405234801561001057600080fd5b506121b8806100206000396000f3fe6080604052600436106100f35760003560e01c8063a6ed5aa11161008a578063e0f6ef8711610059578063e0f6ef8714610325578063e574609e14610350578063edbece371461037b578063fd3144f9146103be576100f3565b8063a6ed5aa11461025d578063adad41cd14610279578063b1e95e94146102bb578063bf162d67146102e4576100f3565b80636c55bacf116100c65780636c55bacf146101b25780637122f1cf146101db5780638165fed5146101f75780639f1953c314610220576100f3565b806307973ccf146100f8578063185756ae146101235780632fdfb6b71461016057806351ed828814610189575b600080fd5b34801561010457600080fd5b5061010d6103e7565b60405161011a91906118d6565b60405180910390f35b34801561012f57600080fd5b5061014a60048036038101906101459190611963565b6103ed565b60405161015791906119ab565b60405180910390f35b34801561016c57600080fd5b5061018760048036038101906101829190611b38565b61040d565b005b34801561019557600080fd5b506101b060048036038101906101ab9190611bd7565b610492565b005b3480156101be57600080fd5b506101d960048036038101906101d49190611bd7565b610616565b005b6101f560048036038101906101f09190611bd7565b6107ee565b005b34801561020357600080fd5b5061021e60048036038101906102199190611c04565b610a27565b005b34801561022c57600080fd5b5061024760048036038101906102429190611bd7565b610b08565b6040516102549190611cce565b60405180910390f35b61027760048036038101906102729190611ce9565b610b3b565b005b34801561028557600080fd5b506102a0600480360381019061029b9190611bd7565b610e86565b6040516102b296959493929190611db1565b60405180910390f35b3480156102c757600080fd5b506102e260048036038101906102dd9190611bd7565b61105a565b005b3480156102f057600080fd5b5061030b60048036038101906103069190611bd7565b6110bc565b60405161031c959493929190611e27565b60405180910390f35b34801561033157600080fd5b5061033a611202565b60405161034791906118d6565b60405180910390f35b34801561035c57600080fd5b50610365611208565b60405161037291906118d6565b60405180910390f35b34801561038757600080fd5b506103a2600480360381019061039d9190611963565b61120e565b6040516103b59796959493929190611e88565b60405180910390f35b3480156103ca57600080fd5b506103e560048036038101906103e09190611f0c565b611408565b005b60015481565b60056020528060005260406000206000915054906101000a900460ff1681565b60008081548092919061041f90611fe2565b919050555060006006600080548152602001908152602001600020905060005481600001819055508481600101908051906020019061045f92919061173b565b508381600201908051906020019061047892919061173b565b508181600401819055508281600301819055505050505050565b600560003373ffffffffffffffffffffffffffffffffffffffff1673ffffffffffffffffffffffffffffffffffffffff16815260200190815260200160002060009054906101000a900460ff1661051e576040517f08c379a000000000000000000000000000000000000000000000000000000000815260040161051590612077565b60405180910390fd5b6000600360003373ffffffffffffffffffffffffffffffffffffffff1673ffffffffffffffffffffffffffffffffffffffff1681526020019081526020016000209050600060066000848152602001908152602001600020905080600301548260040154101561058d57600080fd5b80600301548260040160008282546105a59190612097565b9250508190555080600501339080600181540180825580915050600190039060005260206000200160009091909190916101000a81548173ffffffffffffffffffffffffffffffffffffffff021916908373ffffffffffffffffffffffffffffffffffffffff160217905550505050565b600073ffffffffffffffffffffffffffffffffffffffff163373ffffffffffffffffffffffffffffffffffffffff16141561065057600080fd5b6000600360003373ffffffffffffffffffffffffffffffffffffffff1673ffffffffffffffffffffffffffffffffffffffff16815260200190815260200160002090508181600701546106a39190612097565b816007018190555080600360003373ffffffffffffffffffffffffffffffffffffffff1673ffffffffffffffffffffffffffffffffffffffff168152602001908152602001600020600082015481600001556001820181600101908054610709906120fa565b6107149291906117c1565b506002820181600201908054610729906120fa565b6107349291906117c1565b506003820160009054906101000a900473ffffffffffffffffffffffffffffffffffffffff168160030160006101000a81548173ffffffffffffffffffffffffffffffffffffffff021916908373ffffffffffffffffffffffffffffffffffffffff1602179055506004820154816004015560058201816005019080546107ba906120fa565b6107c59291906117c1565b5060068201816006019080546107dc92919061184e565b50600782015481600701559050505050565b600073ffffffffffffffffffffffffffffffffffffffff163373ffffffffffffffffffffffffffffffffffffffff16141561082857600080fd5b6000732f8fa2250012718cb7f66a0b804ee3f367b4bd1c90508073ffffffffffffffffffffffffffffffffffffffff166108fc349081150290604051600060405180830381858888f19350505050158015610887573d6000803e3d6000fd5b506000600360003373ffffffffffffffffffffffffffffffffffffffff1673ffffffffffffffffffffffffffffffffffffffff16815260200190815260200160002090508281600701546108db919061212c565b816007018190555080600360003373ffffffffffffffffffffffffffffffffffffffff1673ffffffffffffffffffffffffffffffffffffffff168152602001908152602001600020600082015481600001556001820181600101908054610941906120fa565b61094c9291906117c1565b506002820181600201908054610961906120fa565b61096c9291906117c1565b506003820160009054906101000a900473ffffffffffffffffffffffffffffffffffffffff168160030160006101000a81548173ffffffffffffffffffffffffffffffffffffffff021916908373ffffffffffffffffffffffffffffffffffffffff1602179055506004820154816004015560058201816005019080546109f2906120fa565b6109fd9291906117c1565b506006820181600601908054610a1492919061184e565b5060078201548160070155905050505050565b60026000815480929190610a3a90611fe2565b919050555060006040518060c0016040528060025481526020018681526020018481526020018381526020018581526020016000815250905080600760006002548152602001908152602001600020600082015181600001556020820151816001019080519060200190610aaf92919061173b565b506040820151816002019080519060200190610acc92919061173b565b50606082015181600301556080820151816004019080519060200190610af392919061173b565b5060a082015181600501559050505050505050565b60046020528060005260406000206000915054906101000a900473ffffffffffffffffffffffffffffffffffffffff1681565b600073ffffffffffffffffffffffffffffffffffffffff163373ffffffffffffffffffffffffffffffffffffffff161415610b7557600080fd5b6000600760008481526020019081526020016000206040518060c001604052908160008201548152602001600182018054610baf906120fa565b80601f0160208091040260200160405190810160405280929190818152602001828054610bdb906120fa565b8015610c285780601f10610bfd57610100808354040283529160200191610c28565b820191906000526020600020905b815481529060010190602001808311610c0b57829003601f168201915b50505050508152602001600282018054610c41906120fa565b80601f0160208091040260200160405190810160405280929190818152602001828054610c6d906120fa565b8015610cba5780601f10610c8f57610100808354040283529160200191610cba565b820191906000526020600020905b815481529060010190602001808311610c9d57829003601f168201915b5050505050815260200160038201548152602001600482018054610cdd906120fa565b80601f0160208091040260200160405190810160405280929190818152602001828054610d09906120fa565b8015610d565780601f10610d2b57610100808354040283529160200191610d56565b820191906000526020600020905b815481529060010190602001808311610d3957829003601f168201915b5050505050815260200160058201548152505090508060600151341015610d7c57600080fd5b6000732f8fa2250012718cb7f66a0b804ee3f367b4bd1c905060018260a001818151610da8919061212c565b915081815250506000600360003373ffffffffffffffffffffffffffffffffffffffff1673ffffffffffffffffffffffffffffffffffffffff168152602001908152602001600020905083816004016000828254610e06919061212c565b925050819055508173ffffffffffffffffffffffffffffffffffffffff166108fc349081150290604051600060405180830381858888f19350505050158015610e53573d6000803e3d6000fd5b50806006018590806001815401808255809150506001900390600052602060002001600090919091909150555050505050565b6007602052806000526040600020600091509050806000015490806001018054610eaf906120fa565b80601f0160208091040260200160405190810160405280929190818152602001828054610edb906120fa565b8015610f285780601f10610efd57610100808354040283529160200191610f28565b820191906000526020600020905b815481529060010190602001808311610f0b57829003601f168201915b505050505090806002018054610f3d906120fa565b80601f0160208091040260200160405190810160405280929190818152602001828054610f69906120fa565b8015610fb65780601f10610f8b57610100808354040283529160200191610fb6565b820191906000526020600020905b815481529060010190602001808311610f9957829003601f168201915b505050505090806003015490806004018054610fd1906120fa565b80601f0160208091040260200160405190810160405280929190818152602001828054610ffd906120fa565b801561104a5780601f1061101f5761010080835404028352916020019161104a565b820191906000526020600020905b81548152906001019060200180831161102d57829003601f168201915b5050505050908060050154905086565b6000600360003373ffffffffffffffffffffffffffffffffffffffff1673ffffffffffffffffffffffffffffffffffffffff1681526020019081526020016000209050818160040160008282546110b1919061212c565b925050819055505050565b60066020528060005260406000206000915090508060000154908060010180546110e5906120fa565b80601f0160208091040260200160405190810160405280929190818152602001828054611111906120fa565b801561115e5780601f106111335761010080835404028352916020019161115e565b820191906000526020600020905b81548152906001019060200180831161114157829003601f168201915b505050505090806002018054611173906120fa565b80601f016020809104026020016040519081016040528092919081815260200182805461119f906120fa565b80156111ec5780601f106111c1576101008083540402835291602001916111ec565b820191906000526020600020905b8154815290600101906020018083116111cf57829003601f168201915b5050505050908060030154908060040154905085565b60025481565b60005481565b6003602052806000526040600020600091509050806000015490806001018054611237906120fa565b80601f0160208091040260200160405190810160405280929190818152602001828054611263906120fa565b80156112b05780601f10611285576101008083540402835291602001916112b0565b820191906000526020600020905b81548152906001019060200180831161129357829003601f168201915b5050505050908060020180546112c5906120fa565b80601f01602080910402602001604051908101604052809291908181526020018280546112f1906120fa565b801561133e5780601f106113135761010080835404028352916020019161133e565b820191906000526020600020905b81548152906001019060200180831161132157829003601f168201915b5050505050908060030160009054906101000a900473ffffffffffffffffffffffffffffffffffffffff169080600401549080600501805461137f906120fa565b80601f01602080910402602001604051908101604052809291908181526020018280546113ab906120fa565b80156113f85780601f106113cd576101008083540402835291602001916113f8565b820191906000526020600020905b8154815290600101906020018083116113db57829003601f168201915b5050505050908060070154905087565b600073ffffffffffffffffffffffffffffffffffffffff163373ffffffffffffffffffffffffffffffffffffffff16141561144257600080fd5b6001600081548092919061145590611fe2565b91905055506000600360003373ffffffffffffffffffffffffffffffffffffffff1673ffffffffffffffffffffffffffffffffffffffff16815260200190815260200160002090506001548160000181905550838160010190805190602001906114c092919061173b565b50338160030160006101000a81548173ffffffffffffffffffffffffffffffffffffffff021916908373ffffffffffffffffffffffffffffffffffffffff1602179055508281600201908051906020019061151c92919061173b565b508181600501908051906020019061153592919061173b565b50600a81600401819055506000816007018190555080600360003373ffffffffffffffffffffffffffffffffffffffff1673ffffffffffffffffffffffffffffffffffffffff1681526020019081526020016000206000820154816000015560018201816001019080546115a8906120fa565b6115b39291906117c1565b5060028201816002019080546115c8906120fa565b6115d39291906117c1565b506003820160009054906101000a900473ffffffffffffffffffffffffffffffffffffffff168160030160006101000a81548173ffffffffffffffffffffffffffffffffffffffff021916908373ffffffffffffffffffffffffffffffffffffffff160217905550600482015481600401556005820181600501908054611659906120fa565b6116649291906117c1565b50600682018160060190805461167b92919061184e565b50600782015481600701559050503360046000600154815260200190815260200160002060006101000a81548173ffffffffffffffffffffffffffffffffffffffff021916908373ffffffffffffffffffffffffffffffffffffffff1602179055506001600560003373ffffffffffffffffffffffffffffffffffffffff1673ffffffffffffffffffffffffffffffffffffffff16815260200190815260200160002060006101000a81548160ff02191690831515021790555050505050565b828054611747906120fa565b90600052602060002090601f01602090048101928261176957600085556117b0565b82601f1061178257805160ff19168380011785556117b0565b828001600101855582156117b0579182015b828111156117af578251825591602001919060010190611794565b5b5090506117bd91906118a0565b5090565b8280546117cd906120fa565b90600052602060002090601f0160209004810192826117ef576000855561183d565b82601f10611800578054855561183d565b8280016001018555821561183d57600052602060002091601f016020900482015b8281111561183c578254825591600101919060010190611821565b5b50905061184a91906118a0565b5090565b82805482825590600052602060002090810192821561188f5760005260206000209182015b8281111561188e578254825591600101919060010190611873565b5b50905061189c91906118a0565b5090565b5b808211156118b95760008160009055506001016118a1565b5090565b6000819050919050565b6118d0816118bd565b82525050565b60006020820190506118eb60008301846118c7565b92915050565b6000604051905090565b600080fd5b600080fd5b600073ffffffffffffffffffffffffffffffffffffffff82169050919050565b600061193082611905565b9050919050565b61194081611925565b811461194b57600080fd5b50565b60008135905061195d81611937565b92915050565b600060208284031215611979576119786118fb565b5b60006119878482850161194e565b91505092915050565b60008115159050919050565b6119a581611990565b82525050565b60006020820190506119c0600083018461199c565b92915050565b600080fd5b600080fd5b6000601f19601f8301169050919050565b7f4e487b7100000000000000000000000000000000000000000000000000000000600052604160045260246000fd5b611a19826119d0565b810181811067ffffffffffffffff82111715611a3857611a376119e1565b5b80604052505050565b6000611a4b6118f1565b9050611a578282611a10565b919050565b600067ffffffffffffffff821115611a7757611a766119e1565b5b611a80826119d0565b9050602081019050919050565b82818337600083830152505050565b6000611aaf611aaa84611a5c565b611a41565b905082815260208101848484011115611acb57611aca6119cb565b5b611ad6848285611a8d565b509392505050565b600082601f830112611af357611af26119c6565b5b8135611b03848260208601611a9c565b91505092915050565b611b15816118bd565b8114611b2057600080fd5b50565b600081359050611b3281611b0c565b92915050565b60008060008060808587031215611b5257611b516118fb565b5b600085013567ffffffffffffffff811115611b7057611b6f611900565b5b611b7c87828801611ade565b945050602085013567ffffffffffffffff811115611b9d57611b9c611900565b5b611ba987828801611ade565b9350506040611bba87828801611b23565b9250506060611bcb87828801611b23565b91505092959194509250565b600060208284031215611bed57611bec6118fb565b5b6000611bfb84828501611b23565b91505092915050565b60008060008060808587031215611c1e57611c1d6118fb565b5b600085013567ffffffffffffffff811115611c3c57611c3b611900565b5b611c4887828801611ade565b945050602085013567ffffffffffffffff811115611c6957611c68611900565b5b611c7587828801611ade565b935050604085013567ffffffffffffffff811115611c9657611c95611900565b5b611ca287828801611ade565b9250506060611cb387828801611b23565b91505092959194509250565b611cc881611925565b82525050565b6000602082019050611ce36000830184611cbf565b92915050565b60008060408385031215611d0057611cff6118fb565b5b6000611d0e85828601611b23565b9250506020611d1f85828601611b23565b9150509250929050565b600081519050919050565b600082825260208201905092915050565b60005b83811015611d63578082015181840152602081019050611d48565b83811115611d72576000848401525b50505050565b6000611d8382611d29565b611d8d8185611d34565b9350611d9d818560208601611d45565b611da6816119d0565b840191505092915050565b600060c082019050611dc660008301896118c7565b8181036020830152611dd88188611d78565b90508181036040830152611dec8187611d78565b9050611dfb60608301866118c7565b8181036080830152611e0d8185611d78565b9050611e1c60a08301846118c7565b979650505050505050565b600060a082019050611e3c60008301886118c7565b8181036020830152611e4e8187611d78565b90508181036040830152611e628186611d78565b9050611e7160608301856118c7565b611e7e60808301846118c7565b9695505050505050565b600060e082019050611e9d600083018a6118c7565b8181036020830152611eaf8189611d78565b90508181036040830152611ec38188611d78565b9050611ed26060830187611cbf565b611edf60808301866118c7565b81810360a0830152611ef18185611d78565b9050611f0060c08301846118c7565b98975050505050505050565b600080600060608486031215611f2557611f246118fb565b5b600084013567ffffffffffffffff811115611f4357611f42611900565b5b611f4f86828701611ade565b935050602084013567ffffffffffffffff811115611f7057611f6f611900565b5b611f7c86828701611ade565b925050604084013567ffffffffffffffff811115611f9d57611f9c611900565b5b611fa986828701611ade565b9150509250925092565b7f4e487b7100000000000000000000000000000000000000000000000000000000600052601160045260246000fd5b6000611fed826118bd565b91507fffffffffffffffffffffffffffffffffffffffffffffffffffffffffffffffff8214156120205761201f611fb3565b5b600182019050919050565b7f6e6f206164647265737300000000000000000000000000000000000000000000600082015250565b6000612061600a83611d34565b915061206c8261202b565b602082019050919050565b6000602082019050818103600083015261209081612054565b9050919050565b60006120a2826118bd565b91506120ad836118bd565b9250828210156120c0576120bf611fb3565b5b828203905092915050565b7f4e487b7100000000000000000000000000000000000000000000000000000000600052602260045260246000fd5b6000600282049050600182168061211257607f821691505b60208210811415612126576121256120cb565b5b50919050565b6000612137826118bd565b9150612142836118bd565b9250827fffffffffffffffffffffffffffffffffffffffffffffffffffffffffffffffff0382111561217757612176611fb3565b5b82820190509291505056fea26469706673582212206fe890261c89ebc063071d87cdbd1bbb09a6ee88fa136e5f9d98f10b99fc822f64736f6c63430008090033",
  "linkReferences": {},
  "deployedLinkReferences": {}
}