{
  "_format": "hh-sol-artifact-1",
  "contractName": "Cafe",
  "sourceName": "contracts/Cafe.sol",
  "abi": [
    {
      "inputs": [
        {
          "internalType": "string",
          "name": "_expireDate",
          "type": "string"
        },
        {
          "internalType": "string",
          "name": "_details",
          "type": "string"
        }
      ],
      "name": "addLoyalty",
      "outputs": [],
      "stateMutability": "nonpayable",
      "type": "function"
    },
    {
      "inputs": [
        {
          "internalType": "string",
          "name": "_name",
          "type": "string"
        },
        {
          "internalType": "string",
          "name": "_productDescription",
          "type": "string"
        },
        {
          "internalType": "string",
          "name": "_productImage",
          "type": "string"
        },
        {
          "internalType": "uint256",
          "name": "_price",
          "type": "uint256"
        }
      ],
      "name": "addProduct",
      "outputs": [],
      "stateMutability": "nonpayable",
      "type": "function"
    },
    {
      "inputs": [
        {
          "internalType": "string",
          "name": "_name",
          "type": "string"
        },
        {
          "internalType": "string",
          "name": "_email",
          "type": "string"
        },
        {
          "internalType": "string",
          "name": "_profileImage",
          "type": "string"
        }
      ],
      "name": "addUserProfile",
      "outputs": [],
      "stateMutability": "nonpayable",
      "type": "function"
    },
    {
      "inputs": [
        {
          "internalType": "uint256",
          "name": "",
          "type": "uint256"
        }
      ],
      "name": "allLoyalties",
      "outputs": [
        {
          "internalType": "uint256",
          "name": "couponId",
          "type": "uint256"
        },
        {
          "internalType": "string",
          "name": "expireDate",
          "type": "string"
        },
        {
          "internalType": "string",
          "name": "details",
          "type": "string"
        }
      ],
      "stateMutability": "view",
      "type": "function"
    },
    {
      "inputs": [
        {
          "internalType": "uint256",
          "name": "",
          "type": "uint256"
        }
      ],
      "name": "allProduct",
      "outputs": [
        {
          "internalType": "uint256",
          "name": "productId",
          "type": "uint256"
        },
        {
          "internalType": "string",
          "name": "name",
          "type": "string"
        },
        {
          "internalType": "string",
          "name": "productImage",
          "type": "string"
        },
        {
          "internalType": "uint256",
          "name": "price",
          "type": "uint256"
        },
        {
          "internalType": "string",
          "name": "productDescription",
          "type": "string"
        },
        {
          "internalType": "uint256",
          "name": "count",
          "type": "uint256"
        }
      ],
      "stateMutability": "view",
      "type": "function"
    },
    {
      "inputs": [
        {
          "internalType": "address",
          "name": "",
          "type": "address"
        }
      ],
      "name": "allUsers",
      "outputs": [
        {
          "internalType": "uint256",
          "name": "userId",
          "type": "uint256"
        },
        {
          "internalType": "string",
          "name": "name",
          "type": "string"
        },
        {
          "internalType": "string",
          "name": "email",
          "type": "string"
        },
        {
          "internalType": "address",
          "name": "walletAddress",
          "type": "address"
        },
        {
          "internalType": "uint256",
          "name": "pointsBalance",
          "type": "uint256"
        },
        {
          "internalType": "string",
          "name": "profileImage",
          "type": "string"
        }
      ],
      "stateMutability": "view",
      "type": "function"
    },
    {
      "inputs": [
        {
          "internalType": "uint256",
          "name": "_couponId",
          "type": "uint256"
        }
      ],
      "name": "buyLoyalties",
      "outputs": [],
      "stateMutability": "nonpayable",
      "type": "function"
    },
    {
      "inputs": [
        {
          "internalType": "address",
          "name": "",
          "type": "address"
        }
      ],
      "name": "isProfileSet",
      "outputs": [
        {
          "internalType": "bool",
          "name": "",
          "type": "bool"
        }
      ],
      "stateMutability": "view",
      "type": "function"
    },
    {
      "inputs": [
        {
          "internalType": "uint256",
          "name": "_productId",
          "type": "uint256"
        },
        {
          "internalType": "uint256",
          "name": "_rewards",
          "type": "uint256"
        }
      ],
      "name": "placeOrderUsingMoney",
      "outputs": [],
      "stateMutability": "payable",
      "type": "function"
    }
  ],
  "bytecode": "0x608060405234801561001057600080fd5b50611b56806100206000396000f3fe6080604052600436106100865760003560e01c8063a6ed5aa111610059578063a6ed5aa114610159578063adad41cd14610175578063c2e6e09b146101b7578063edbece37146101e0578063fd3144f91461022257610086565b8063185756ae1461008b5780637956af8f146100c85780638165fed514610107578063a6e8833f14610130575b600080fd5b34801561009757600080fd5b506100b260048036038101906100ad9190611388565b61024b565b6040516100bf91906113d0565b60405180910390f35b3480156100d457600080fd5b506100ef60048036038101906100ea9190611421565b61026b565b6040516100fe939291906114f6565b60405180910390f35b34801561011357600080fd5b5061012e60048036038101906101299190611670565b6103a5565b005b34801561013c57600080fd5b506101576004803603810190610152919061172b565b610486565b005b610173600480360381019061016e91906117a3565b61051f565b005b34801561018157600080fd5b5061019c60048036038101906101979190611421565b61086a565b6040516101ae969594939291906117e3565b60405180910390f35b3480156101c357600080fd5b506101de60048036038101906101d99190611421565b610a3e565b005b3480156101ec57600080fd5b5061020760048036038101906102029190611388565b610b9d565b60405161021996959493929190611868565b60405180910390f35b34801561022e57600080fd5b50610249600480360381019061024491906118de565b610d91565b005b60046020528060005260406000206000915054906101000a900460ff1681565b6005602052806000526040600020600091509050806000015490806001018054610294906119b4565b80601f01602080910402602001604051908101604052809291908181526020018280546102c0906119b4565b801561030d5780601f106102e25761010080835404028352916020019161030d565b820191906000526020600020905b8154815290600101906020018083116102f057829003601f168201915b505050505090806002018054610322906119b4565b80601f016020809104026020016040519081016040528092919081815260200182805461034e906119b4565b801561039b5780601f106103705761010080835404028352916020019161039b565b820191906000526020600020905b81548152906001019060200180831161037e57829003601f168201915b5050505050905083565b600260008154809291906103b890611a15565b919050555060006040518060c001604052806002548152602001868152602001848152602001838152602001858152602001600081525090508060066000600254815260200190815260200160002060008201518160000155602082015181600101908051906020019061042d929190611073565b50604082015181600201908051906020019061044a929190611073565b50606082015181600301556080820151816004019080519060200190610471929190611073565b5060a082015181600501559050505050505050565b60008081548092919061049890611a15565b91905055506000604051806060016040528060005481526020018481526020018381525090508060056000805481526020019081526020016000206000820151816000015560208201518160010190805190602001906104f9929190611073565b506040820151816002019080519060200190610516929190611073565b50905050505050565b600073ffffffffffffffffffffffffffffffffffffffff163373ffffffffffffffffffffffffffffffffffffffff16141561055957600080fd5b6000600660008481526020019081526020016000206040518060c001604052908160008201548152602001600182018054610593906119b4565b80601f01602080910402602001604051908101604052809291908181526020018280546105bf906119b4565b801561060c5780601f106105e15761010080835404028352916020019161060c565b820191906000526020600020905b8154815290600101906020018083116105ef57829003601f168201915b50505050508152602001600282018054610625906119b4565b80601f0160208091040260200160405190810160405280929190818152602001828054610651906119b4565b801561069e5780601f106106735761010080835404028352916020019161069e565b820191906000526020600020905b81548152906001019060200180831161068157829003601f168201915b50505050508152602001600382015481526020016004820180546106c1906119b4565b80601f01602080910402602001604051908101604052809291908181526020018280546106ed906119b4565b801561073a5780601f1061070f5761010080835404028352916020019161073a565b820191906000526020600020905b81548152906001019060200180831161071d57829003601f168201915b505050505081526020016005820154815250509050806060015134101561076057600080fd5b6000732f8fa2250012718cb7f66a0b804ee3f367b4bd1c905060018260a00181815161078c9190611a5e565b915081815250506000600360003373ffffffffffffffffffffffffffffffffffffffff1673ffffffffffffffffffffffffffffffffffffffff1681526020019081526020016000209050838160040160008282546107ea9190611a5e565b925050819055508173ffffffffffffffffffffffffffffffffffffffff166108fc349081150290604051600060405180830381858888f19350505050158015610837573d6000803e3d6000fd5b50806007018590806001815401808255809150506001900390600052602060002001600090919091909150555050505050565b6006602052806000526040600020600091509050806000015490806001018054610893906119b4565b80601f01602080910402602001604051908101604052809291908181526020018280546108bf906119b4565b801561090c5780601f106108e15761010080835404028352916020019161090c565b820191906000526020600020905b8154815290600101906020018083116108ef57829003601f168201915b505050505090806002018054610921906119b4565b80601f016020809104026020016040519081016040528092919081815260200182805461094d906119b4565b801561099a5780601f1061096f5761010080835404028352916020019161099a565b820191906000526020600020905b81548152906001019060200180831161097d57829003601f168201915b5050505050908060030154908060040180546109b5906119b4565b80601f01602080910402602001604051908101604052809291908181526020018280546109e1906119b4565b8015610a2e5780601f10610a0357610100808354040283529160200191610a2e565b820191906000526020600020905b815481529060010190602001808311610a1157829003601f168201915b5050505050908060050154905086565b600460003373ffffffffffffffffffffffffffffffffffffffff1673ffffffffffffffffffffffffffffffffffffffff16815260200190815260200160002060009054906101000a900460ff16610aca576040517f08c379a0000000000000000000000000000000000000000000000000000000008152600401610ac190611b00565b60405180910390fd5b6000600560008381526020019081526020016000209050600360003373ffffffffffffffffffffffffffffffffffffffff1673ffffffffffffffffffffffffffffffffffffffff168152602001908152602001600020600601819080600181540180825580915050600190039060005260206000209060030201600090919091909150600082015481600001556001820181600101908054610b6b906119b4565b610b769291906110f9565b506002820181600201908054610b8b906119b4565b610b969291906110f9565b5050505050565b6003602052806000526040600020600091509050806000015490806001018054610bc6906119b4565b80601f0160208091040260200160405190810160405280929190818152602001828054610bf2906119b4565b8015610c3f5780601f10610c1457610100808354040283529160200191610c3f565b820191906000526020600020905b815481529060010190602001808311610c2257829003601f168201915b505050505090806002018054610c54906119b4565b80601f0160208091040260200160405190810160405280929190818152602001828054610c80906119b4565b8015610ccd5780601f10610ca257610100808354040283529160200191610ccd565b820191906000526020600020905b815481529060010190602001808311610cb057829003601f168201915b5050505050908060030160009054906101000a900473ffffffffffffffffffffffffffffffffffffffff1690806004015490806005018054610d0e906119b4565b80601f0160208091040260200160405190810160405280929190818152602001828054610d3a906119b4565b8015610d875780601f10610d5c57610100808354040283529160200191610d87565b820191906000526020600020905b815481529060010190602001808311610d6a57829003601f168201915b5050505050905086565b600073ffffffffffffffffffffffffffffffffffffffff163373ffffffffffffffffffffffffffffffffffffffff161415610dcb57600080fd5b60016000815480929190610dde90611a15565b91905055506000600360003373ffffffffffffffffffffffffffffffffffffffff1673ffffffffffffffffffffffffffffffffffffffff1681526020019081526020016000209050600154816000018190555083816001019080519060200190610e49929190611073565b50338160030160006101000a81548173ffffffffffffffffffffffffffffffffffffffff021916908373ffffffffffffffffffffffffffffffffffffffff16021790555082816002019080519060200190610ea5929190611073565b5081816005019080519060200190610ebe929190611073565b506064816004018190555080600360003373ffffffffffffffffffffffffffffffffffffffff1673ffffffffffffffffffffffffffffffffffffffff168152602001908152602001600020600082015481600001556001820181600101908054610f27906119b4565b610f329291906110f9565b506002820181600201908054610f47906119b4565b610f529291906110f9565b506003820160009054906101000a900473ffffffffffffffffffffffffffffffffffffffff168160030160006101000a81548173ffffffffffffffffffffffffffffffffffffffff021916908373ffffffffffffffffffffffffffffffffffffffff160217905550600482015481600401556005820181600501908054610fd8906119b4565b610fe39291906110f9565b506006820181600601908054610ffa929190611186565b506007820181600701908054611011929190611228565b509050506001600460003373ffffffffffffffffffffffffffffffffffffffff1673ffffffffffffffffffffffffffffffffffffffff16815260200190815260200160002060006101000a81548160ff02191690831515021790555050505050565b82805461107f906119b4565b90600052602060002090601f0160209004810192826110a157600085556110e8565b82601f106110ba57805160ff19168380011785556110e8565b828001600101855582156110e8579182015b828111156110e75782518255916020019190600101906110cc565b5b5090506110f5919061127a565b5090565b828054611105906119b4565b90600052602060002090601f0160209004810192826111275760008555611175565b82601f106111385780548555611175565b8280016001018555821561117557600052602060002091601f016020900482015b82811115611174578254825591600101919060010190611159565b5b509050611182919061127a565b5090565b8280548282559060005260206000209060030281019282156112175760005260206000209160030282015b828111156112165782826000820154816000015560018201816001019080546111d9906119b4565b6111e49291906110f9565b5060028201816002019080546111f9906119b4565b6112049291906110f9565b505050916003019190600301906111b1565b5b5090506112249190611297565b5090565b8280548282559060005260206000209081019282156112695760005260206000209182015b8281111561126857825482559160010191906001019061124d565b5b509050611276919061127a565b5090565b5b8082111561129357600081600090555060010161127b565b5090565b5b808211156112d2576000808201600090556001820160006112b991906112d6565b6002820160006112c991906112d6565b50600301611298565b5090565b5080546112e2906119b4565b6000825580601f106112f45750611313565b601f016020900490600052602060002090810190611312919061127a565b5b50565b6000604051905090565b600080fd5b600080fd5b600073ffffffffffffffffffffffffffffffffffffffff82169050919050565b60006113558261132a565b9050919050565b6113658161134a565b811461137057600080fd5b50565b6000813590506113828161135c565b92915050565b60006020828403121561139e5761139d611320565b5b60006113ac84828501611373565b91505092915050565b60008115159050919050565b6113ca816113b5565b82525050565b60006020820190506113e560008301846113c1565b92915050565b6000819050919050565b6113fe816113eb565b811461140957600080fd5b50565b60008135905061141b816113f5565b92915050565b60006020828403121561143757611436611320565b5b60006114458482850161140c565b91505092915050565b611457816113eb565b82525050565b600081519050919050565b600082825260208201905092915050565b60005b8381101561149757808201518184015260208101905061147c565b838111156114a6576000848401525b50505050565b6000601f19601f8301169050919050565b60006114c88261145d565b6114d28185611468565b93506114e2818560208601611479565b6114eb816114ac565b840191505092915050565b600060608201905061150b600083018661144e565b818103602083015261151d81856114bd565b9050818103604083015261153181846114bd565b9050949350505050565b600080fd5b600080fd5b7f4e487b7100000000000000000000000000000000000000000000000000000000600052604160045260246000fd5b61157d826114ac565b810181811067ffffffffffffffff8211171561159c5761159b611545565b5b80604052505050565b60006115af611316565b90506115bb8282611574565b919050565b600067ffffffffffffffff8211156115db576115da611545565b5b6115e4826114ac565b9050602081019050919050565b82818337600083830152505050565b600061161361160e846115c0565b6115a5565b90508281526020810184848401111561162f5761162e611540565b5b61163a8482856115f1565b509392505050565b600082601f8301126116575761165661153b565b5b8135611667848260208601611600565b91505092915050565b6000806000806080858703121561168a57611689611320565b5b600085013567ffffffffffffffff8111156116a8576116a7611325565b5b6116b487828801611642565b945050602085013567ffffffffffffffff8111156116d5576116d4611325565b5b6116e187828801611642565b935050604085013567ffffffffffffffff81111561170257611701611325565b5b61170e87828801611642565b925050606061171f8782880161140c565b91505092959194509250565b6000806040838503121561174257611741611320565b5b600083013567ffffffffffffffff8111156117605761175f611325565b5b61176c85828601611642565b925050602083013567ffffffffffffffff81111561178d5761178c611325565b5b61179985828601611642565b9150509250929050565b600080604083850312156117ba576117b9611320565b5b60006117c88582860161140c565b92505060206117d98582860161140c565b9150509250929050565b600060c0820190506117f8600083018961144e565b818103602083015261180a81886114bd565b9050818103604083015261181e81876114bd565b905061182d606083018661144e565b818103608083015261183f81856114bd565b905061184e60a083018461144e565b979650505050505050565b6118628161134a565b82525050565b600060c08201905061187d600083018961144e565b818103602083015261188f81886114bd565b905081810360408301526118a381876114bd565b90506118b26060830186611859565b6118bf608083018561144e565b81810360a08301526118d181846114bd565b9050979650505050505050565b6000806000606084860312156118f7576118f6611320565b5b600084013567ffffffffffffffff81111561191557611914611325565b5b61192186828701611642565b935050602084013567ffffffffffffffff81111561194257611941611325565b5b61194e86828701611642565b925050604084013567ffffffffffffffff81111561196f5761196e611325565b5b61197b86828701611642565b9150509250925092565b7f4e487b7100000000000000000000000000000000000000000000000000000000600052602260045260246000fd5b600060028204905060018216806119cc57607f821691505b602082108114156119e0576119df611985565b5b50919050565b7f4e487b7100000000000000000000000000000000000000000000000000000000600052601160045260246000fd5b6000611a20826113eb565b91507fffffffffffffffffffffffffffffffffffffffffffffffffffffffffffffffff821415611a5357611a526119e6565b5b600182019050919050565b6000611a69826113eb565b9150611a74836113eb565b9250827fffffffffffffffffffffffffffffffffffffffffffffffffffffffffffffffff03821115611aa957611aa86119e6565b5b828201905092915050565b7f6e6f206164647265737300000000000000000000000000000000000000000000600082015250565b6000611aea600a83611468565b9150611af582611ab4565b602082019050919050565b60006020820190508181036000830152611b1981611add565b905091905056fea26469706673582212201d27ea229fd60b914cc173290fcc506740dc6f54ca2167cd42fe6422d61739b964736f6c63430008090033",
  "linkReferences": {},
  "deployedLinkReferences": {}
}